{"@zetachain/protocol-contracts/contracts/zevm/SystemContract.sol":{"SystemContract":{"abi":[{"inputs":[{"internalType":"address","name":"wzeta_","type":"address"},{"internalType":"address","name":"uniswapv2Factory_","type":"address"},{"internalType":"address","name":"uniswapv2Router02_","type":"address"}],"stateMutability":"nonpayable","type":"constructor"},{"inputs":[],"name":"CallerIsNotFungibleModule","type":"error"},{"inputs":[],"name":"CantBeIdenticalAddresses","type":"error"},{"inputs":[],"name":"CantBeZeroAddress","type":"error"},{"inputs":[],"name":"InvalidTarget","type":"error"},{"inputs":[],"name":"ZeroAddress","type":"error"},{"anonymous":false,"inputs":[{"indexed":false,"internalType":"address","name":"","type":"address"}],"name":"SetConnectorZEVM","type":"event"},{"anonymous":false,"inputs":[{"indexed":false,"internalType":"uint256","name":"","type":"uint256"},{"indexed":false,"internalType":"address","name":"","type":"address"}],"name":"SetGasCoin","type":"event"},{"anonymous":false,"inputs":[{"indexed":false,"internalType":"uint256","name":"","type":"uint256"},{"indexed":false,"internalType":"uint256","name":"","type":"uint256"}],"name":"SetGasPrice","type":"event"},{"anonymous":false,"inputs":[{"indexed":false,"internalType":"uint256","name":"","type":"uint256"},{"indexed":false,"internalType":"address","name":"","type":"address"}],"name":"SetGasZetaPool","type":"event"},{"anonymous":false,"inputs":[{"indexed":false,"internalType":"address","name":"","type":"address"}],"name":"SetWZeta","type":"event"},{"anonymous":false,"inputs":[],"name":"SystemContractDeployed","type":"event"},{"inputs":[],"name":"FUNGIBLE_MODULE_ADDRESS","outputs":[{"internalType":"address","name":"","type":"address"}],"stateMutability":"view","type":"function"},{"inputs":[{"components":[{"internalType":"bytes","name":"origin","type":"bytes"},{"internalType":"address","name":"sender","type":"address"},{"internalType":"uint256","name":"chainID","type":"uint256"}],"internalType":"struct zContext","name":"context","type":"tuple"},{"internalType":"address","name":"zrc20","type":"address"},{"internalType":"uint256","name":"amount","type":"uint256"},{"internalType":"address","name":"target","type":"address"},{"internalType":"bytes","name":"message","type":"bytes"}],"name":"depositAndCall","outputs":[],"stateMutability":"nonpayable","type":"function"},{"inputs":[{"internalType":"uint256","name":"","type":"uint256"}],"name":"gasCoinZRC20ByChainId","outputs":[{"internalType":"address","name":"","type":"address"}],"stateMutability":"view","type":"function"},{"inputs":[{"internalType":"uint256","name":"","type":"uint256"}],"name":"gasPriceByChainId","outputs":[{"internalType":"uint256","name":"","type":"uint256"}],"stateMutability":"view","type":"function"},{"inputs":[{"internalType":"uint256","name":"","type":"uint256"}],"name":"gasZetaPoolByChainId","outputs":[{"internalType":"address","name":"","type":"address"}],"stateMutability":"view","type":"function"},{"inputs":[{"internalType":"address","name":"addr","type":"address"}],"name":"setConnectorZEVMAddress","outputs":[],"stateMutability":"nonpayable","type":"function"},{"inputs":[{"internalType":"uint256","name":"chainID","type":"uint256"},{"internalType":"address","name":"zrc20","type":"address"}],"name":"setGasCoinZRC20","outputs":[],"stateMutability":"nonpayable","type":"function"},{"inputs":[{"internalType":"uint256","name":"chainID","type":"uint256"},{"internalType":"uint256","name":"price","type":"uint256"}],"name":"setGasPrice","outputs":[],"stateMutability":"nonpayable","type":"function"},{"inputs":[{"internalType":"uint256","name":"chainID","type":"uint256"},{"internalType":"address","name":"erc20","type":"address"}],"name":"setGasZetaPool","outputs":[],"stateMutability":"nonpayable","type":"function"},{"inputs":[{"internalType":"address","name":"addr","type":"address"}],"name":"setWZETAContractAddress","outputs":[],"stateMutability":"nonpayable","type":"function"},{"inputs":[],"name":"uniswapv2FactoryAddress","outputs":[{"internalType":"address","name":"","type":"address"}],"stateMutability":"view","type":"function"},{"inputs":[{"internalType":"address","name":"factory","type":"address"},{"internalType":"address","name":"tokenA","type":"address"},{"internalType":"address","name":"tokenB","type":"address"}],"name":"uniswapv2PairFor","outputs":[{"internalType":"address","name":"pair","type":"address"}],"stateMutability":"pure","type":"function"},{"inputs":[],"name":"uniswapv2Router02Address","outputs":[{"internalType":"address","name":"","type":"address"}],"stateMutability":"view","type":"function"},{"inputs":[],"name":"wZetaContractAddress","outputs":[{"internalType":"address","name":"","type":"address"}],"stateMutability":"view","type":"function"},{"inputs":[],"name":"zetaConnectorZEVMAddress","outputs":[{"internalType":"address","name":"","type":"address"}],"stateMutability":"view","type":"function"}],"evm":{"bytecode":{"linkReferences":{},"object":"60c060405234801561001057600080fd5b50604051610d14380380610d1483398101604081905261002f916100e7565b3373735b14bb79463307aacbed86daf3322b1e6226ab1461006357604051632b2add3d60e01b815260040160405180910390fd5b600380546001600160a01b0385166001600160a01b03199091161790556001600160601b0319606083811b821660805282901b1660a0526040517f80699e81136d69cb8367ad52a994e25c722a86da654b561d0c14b61a777e7ac590600090a150505061012a565b80516001600160a01b03811681146100e257600080fd5b919050565b6000806000606084860312156100fc57600080fd5b610105846100cb565b9250610113602085016100cb565b9150610121604085016100cb565b90509250925092565b60805160601c60a05160601c610bb861015c60003960006101b1015260008181610278015261039d0152610bb86000f3fe608060405234801561001057600080fd5b50600436106100f55760003560e01c806397770dff11610097578063c63585cc11610066578063c63585cc14610232578063d7fd7afb14610245578063d936a01214610273578063ee2815ba1461029a57600080fd5b806397770dff146101e6578063a7cb0507146101f9578063c39aca371461020c578063c62178ac1461021f57600080fd5b8063513a9c05116100d3578063513a9c0514610170578063569541b914610199578063842da36d146101ac57806391dd645f146101d357600080fd5b80630be15547146100fa5780631f0e251b146101405780633ce4a5bc14610155575b600080fd5b610123610108366004610a3c565b6001602052600090815260409020546001600160a01b031681565b6040516001600160a01b0390911681526020015b60405180910390f35b61015361014e3660046108eb565b6102ad565b005b61012373735b14bb79463307aacbed86daf3322b1e6226ab81565b61012361017e366004610a3c565b6002602052600090815260409020546001600160a01b031681565b600354610123906001600160a01b031681565b6101237f000000000000000000000000000000000000000000000000000000000000000081565b6101536101e1366004610a55565b61035d565b6101536101f43660046108eb565b610436565b610153610207366004610a81565b6104df565b61015361021a366004610972565b610561565b600454610123906001600160a01b031681565b61012361024036600461090d565b6106d7565b610265610253366004610a3c565b60006020819052908152604090205481565b604051908152602001610137565b6101237f000000000000000000000000000000000000000000000000000000000000000081565b6101536102a8366004610a55565b6107b0565b3373735b14bb79463307aacbed86daf3322b1e6226ab146102e157604051632b2add3d60e01b815260040160405180910390fd5b6001600160a01b0381166103085760405163d92e233d60e01b815260040160405180910390fd5b600480546001600160a01b0319166001600160a01b0383169081179091556040519081527f3ade88e3922d64780e1bf4460d364c2970b69da813f9c0c07a1c187b5647636c906020015b60405180910390a150565b3373735b14bb79463307aacbed86daf3322b1e6226ab1461039157604051632b2add3d60e01b815260040160405180910390fd5b6003546000906103cc907f0000000000000000000000000000000000000000000000000000000000000000906001600160a01b0316846106d7565b60008481526002602090815260409182902080546001600160a01b0319166001600160a01b0385169081179091558251878152918201529192507f0ecec485166da6139b13bb7e033e9446e2d35348e80ebf1180d4afe2dba1704e910160405180910390a1505050565b3373735b14bb79463307aacbed86daf3322b1e6226ab1461046a57604051632b2add3d60e01b815260040160405180910390fd5b6001600160a01b0381166104915760405163d92e233d60e01b815260040160405180910390fd5b600380546001600160a01b0319166001600160a01b0383169081179091556040519081527fdba79d534382d1a8ae108e4c8ecb27c6ae42ab8b91d44eedf88bd329f3868d5e90602001610352565b3373735b14bb79463307aacbed86daf3322b1e6226ab1461051357604051632b2add3d60e01b815260040160405180910390fd5b6000828152602081815260409182902083905581518481529081018390527f49f492222906ac486c3c1401fa545626df1f0c0e5a77a05597ea2ed66af9850d91015b60405180910390a15050565b3373735b14bb79463307aacbed86daf3322b1e6226ab1461059557604051632b2add3d60e01b815260040160405180910390fd5b6001600160a01b03831673735b14bb79463307aacbed86daf3322b1e6226ab14806105c857506001600160a01b03831630145b156105e65760405163416aebb560e11b815260040160405180910390fd5b6040516311f9fbc960e21b81526001600160a01b038481166004830152602482018690528616906347e7ef2490604401602060405180830381600087803b15801561063057600080fd5b505af1158015610644573d6000803e3d6000fd5b505050506040513d601f19601f820116820180604052508101906106689190610950565b50604051636f218ab760e11b81526001600160a01b0384169063de43156e9061069d9089908990899088908890600401610acc565b600060405180830381600087803b1580156106b757600080fd5b505af11580156106cb573d6000803e3d6000fd5b50505050505050505050565b60008060006106e68585610843565b6040516bffffffffffffffffffffffff19606084811b8216602084015283901b166034820152919350915086906048016040516020818303038152906040528051906020012060405160200161078e9291906001600160f81b0319815260609290921b6bffffffffffffffffffffffff1916600183015260158201527f96e8ac4277198ff8b6f785478aa9a39f403cb768dd02cbee326c3e7da348845f603582015260550190565b60408051601f1981840301815291905280516020909101209695505050505050565b3373735b14bb79463307aacbed86daf3322b1e6226ab146107e457604051632b2add3d60e01b815260040160405180910390fd5b60008281526001602090815260409182902080546001600160a01b0319166001600160a01b0385169081179091558251858152918201527fd1b36d30f6248e97c473b4d1348ca164a4ef6759022f54a58ec200326c39c45d9101610555565b600080826001600160a01b0316846001600160a01b031614156108795760405163658f3e7f60e11b815260040160405180910390fd5b826001600160a01b0316846001600160a01b03161061089957828461089c565b83835b90925090506001600160a01b0382166108c857604051633c5a83ed60e11b815260040160405180910390fd5b9250929050565b80356001600160a01b03811681146108e657600080fd5b919050565b6000602082840312156108fd57600080fd5b610906826108cf565b9392505050565b60008060006060848603121561092257600080fd5b61092b846108cf565b9250610939602085016108cf565b9150610947604085016108cf565b90509250925092565b60006020828403121561096257600080fd5b8151801515811461090657600080fd5b60008060008060008060a0878903121561098b57600080fd5b863567ffffffffffffffff808211156109a357600080fd5b908801906060828b0312156109b757600080fd5b8197506109c660208a016108cf565b9650604089013595506109db60608a016108cf565b945060808901359150808211156109f157600080fd5b818901915089601f830112610a0557600080fd5b813581811115610a1457600080fd5b8a6020828501011115610a2657600080fd5b6020830194508093505050509295509295509295565b600060208284031215610a4e57600080fd5b5035919050565b60008060408385031215610a6857600080fd5b82359150610a78602084016108cf565b90509250929050565b60008060408385031215610a9457600080fd5b50508035926020909101359150565b81835281816020850137506000828201602090810191909152601f909101601f19169091010190565b6080815260008635601e19883603018112610ae657600080fd5b8701803567ffffffffffffffff811115610aff57600080fd5b803603891315610b0e57600080fd5b60606080850152610b2660e085018260208501610aa3565b91506001600160a01b039050610b3e60208a016108cf565b1660a0840152604088013560c08401526001600160a01b03871660208401528560408401528281036060840152610b76818587610aa3565b9897505050505050505056fea264697066735822122027aba8ef9a9a83ac8a4d291a2488ef07ffa7a49a450eb9940f43cb1477d59ec564736f6c63430008070033","opcodes":"PUSH1 0xC0 PUSH1 0x40 MSTORE CALLVALUE DUP1 ISZERO PUSH2 0x10 JUMPI PUSH1 0x0 DUP1 REVERT JUMPDEST POP PUSH1 0x40 MLOAD PUSH2 0xD14 CODESIZE SUB DUP1 PUSH2 0xD14 DUP4 CODECOPY DUP2 ADD PUSH1 0x40 DUP2 SWAP1 MSTORE PUSH2 0x2F SWAP2 PUSH2 0xE7 JUMP JUMPDEST CALLER PUSH20 0x735B14BB79463307AACBED86DAF3322B1E6226AB EQ PUSH2 0x63 JUMPI PUSH1 0x40 MLOAD PUSH4 0x2B2ADD3D PUSH1 0xE0 SHL DUP2 MSTORE PUSH1 0x4 ADD PUSH1 0x40 MLOAD DUP1 SWAP2 SUB SWAP1 REVERT JUMPDEST PUSH1 0x3 DUP1 SLOAD PUSH1 0x1 PUSH1 0x1 PUSH1 0xA0 SHL SUB DUP6 AND PUSH1 0x1 PUSH1 0x1 PUSH1 0xA0 SHL SUB NOT SWAP1 SWAP2 AND OR SWAP1 SSTORE PUSH1 0x1 PUSH1 0x1 PUSH1 0x60 SHL SUB NOT PUSH1 0x60 DUP4 DUP2 SHL DUP3 AND PUSH1 0x80 MSTORE DUP3 SWAP1 SHL AND PUSH1 0xA0 MSTORE PUSH1 0x40 MLOAD PUSH32 0x80699E81136D69CB8367AD52A994E25C722A86DA654B561D0C14B61A777E7AC5 SWAP1 PUSH1 0x0 SWAP1 LOG1 POP POP POP PUSH2 0x12A JUMP JUMPDEST DUP1 MLOAD PUSH1 0x1 PUSH1 0x1 PUSH1 0xA0 SHL SUB DUP2 AND DUP2 EQ PUSH2 0xE2 JUMPI PUSH1 0x0 DUP1 REVERT JUMPDEST SWAP2 SWAP1 POP JUMP JUMPDEST PUSH1 0x0 DUP1 PUSH1 0x0 PUSH1 0x60 DUP5 DUP7 SUB SLT ISZERO PUSH2 0xFC JUMPI PUSH1 0x0 DUP1 REVERT JUMPDEST PUSH2 0x105 DUP5 PUSH2 0xCB JUMP JUMPDEST SWAP3 POP PUSH2 0x113 PUSH1 0x20 DUP6 ADD PUSH2 0xCB JUMP JUMPDEST SWAP2 POP PUSH2 0x121 PUSH1 0x40 DUP6 ADD PUSH2 0xCB JUMP JUMPDEST SWAP1 POP SWAP3 POP SWAP3 POP SWAP3 JUMP JUMPDEST PUSH1 0x80 MLOAD PUSH1 0x60 SHR PUSH1 0xA0 MLOAD PUSH1 0x60 SHR PUSH2 0xBB8 PUSH2 0x15C PUSH1 0x0 CODECOPY PUSH1 0x0 PUSH2 0x1B1 ADD MSTORE PUSH1 0x0 DUP2 DUP2 PUSH2 0x278 ADD MSTORE PUSH2 0x39D ADD MSTORE PUSH2 0xBB8 PUSH1 0x0 RETURN INVALID PUSH1 0x80 PUSH1 0x40 MSTORE CALLVALUE DUP1 ISZERO PUSH2 0x10 JUMPI PUSH1 0x0 DUP1 REVERT JUMPDEST POP PUSH1 0x4 CALLDATASIZE LT PUSH2 0xF5 JUMPI PUSH1 0x0 CALLDATALOAD PUSH1 0xE0 SHR DUP1 PUSH4 0x97770DFF GT PUSH2 0x97 JUMPI DUP1 PUSH4 0xC63585CC GT PUSH2 0x66 JUMPI DUP1 PUSH4 0xC63585CC EQ PUSH2 0x232 JUMPI DUP1 PUSH4 0xD7FD7AFB EQ PUSH2 0x245 JUMPI DUP1 PUSH4 0xD936A012 EQ PUSH2 0x273 JUMPI DUP1 PUSH4 0xEE2815BA EQ PUSH2 0x29A JUMPI PUSH1 0x0 DUP1 REVERT JUMPDEST DUP1 PUSH4 0x97770DFF EQ PUSH2 0x1E6 JUMPI DUP1 PUSH4 0xA7CB0507 EQ PUSH2 0x1F9 JUMPI DUP1 PUSH4 0xC39ACA37 EQ PUSH2 0x20C JUMPI DUP1 PUSH4 0xC62178AC EQ PUSH2 0x21F JUMPI PUSH1 0x0 DUP1 REVERT JUMPDEST DUP1 PUSH4 0x513A9C05 GT PUSH2 0xD3 JUMPI DUP1 PUSH4 0x513A9C05 EQ PUSH2 0x170 JUMPI DUP1 PUSH4 0x569541B9 EQ PUSH2 0x199 JUMPI DUP1 PUSH4 0x842DA36D EQ PUSH2 0x1AC JUMPI DUP1 PUSH4 0x91DD645F EQ PUSH2 0x1D3 JUMPI PUSH1 0x0 DUP1 REVERT JUMPDEST DUP1 PUSH4 0xBE15547 EQ PUSH2 0xFA JUMPI DUP1 PUSH4 0x1F0E251B EQ PUSH2 0x140 JUMPI DUP1 PUSH4 0x3CE4A5BC EQ PUSH2 0x155 JUMPI JUMPDEST PUSH1 0x0 DUP1 REVERT JUMPDEST PUSH2 0x123 PUSH2 0x108 CALLDATASIZE PUSH1 0x4 PUSH2 0xA3C JUMP JUMPDEST PUSH1 0x1 PUSH1 0x20 MSTORE PUSH1 0x0 SWAP1 DUP2 MSTORE PUSH1 0x40 SWAP1 KECCAK256 SLOAD PUSH1 0x1 PUSH1 0x1 PUSH1 0xA0 SHL SUB AND DUP2 JUMP JUMPDEST PUSH1 0x40 MLOAD PUSH1 0x1 PUSH1 0x1 PUSH1 0xA0 SHL SUB SWAP1 SWAP2 AND DUP2 MSTORE PUSH1 0x20 ADD JUMPDEST PUSH1 0x40 MLOAD DUP1 SWAP2 SUB SWAP1 RETURN JUMPDEST PUSH2 0x153 PUSH2 0x14E CALLDATASIZE PUSH1 0x4 PUSH2 0x8EB JUMP JUMPDEST PUSH2 0x2AD JUMP JUMPDEST STOP JUMPDEST PUSH2 0x123 PUSH20 0x735B14BB79463307AACBED86DAF3322B1E6226AB DUP2 JUMP JUMPDEST PUSH2 0x123 PUSH2 0x17E CALLDATASIZE PUSH1 0x4 PUSH2 0xA3C JUMP JUMPDEST PUSH1 0x2 PUSH1 0x20 MSTORE PUSH1 0x0 SWAP1 DUP2 MSTORE PUSH1 0x40 SWAP1 KECCAK256 SLOAD PUSH1 0x1 PUSH1 0x1 PUSH1 0xA0 SHL SUB AND DUP2 JUMP JUMPDEST PUSH1 0x3 SLOAD PUSH2 0x123 SWAP1 PUSH1 0x1 PUSH1 0x1 PUSH1 0xA0 SHL SUB AND DUP2 JUMP JUMPDEST PUSH2 0x123 PUSH32 0x0 DUP2 JUMP JUMPDEST PUSH2 0x153 PUSH2 0x1E1 CALLDATASIZE PUSH1 0x4 PUSH2 0xA55 JUMP JUMPDEST PUSH2 0x35D JUMP JUMPDEST PUSH2 0x153 PUSH2 0x1F4 CALLDATASIZE PUSH1 0x4 PUSH2 0x8EB JUMP JUMPDEST PUSH2 0x436 JUMP JUMPDEST PUSH2 0x153 PUSH2 0x207 CALLDATASIZE PUSH1 0x4 PUSH2 0xA81 JUMP JUMPDEST PUSH2 0x4DF JUMP JUMPDEST PUSH2 0x153 PUSH2 0x21A CALLDATASIZE PUSH1 0x4 PUSH2 0x972 JUMP JUMPDEST PUSH2 0x561 JUMP JUMPDEST PUSH1 0x4 SLOAD PUSH2 0x123 SWAP1 PUSH1 0x1 PUSH1 0x1 PUSH1 0xA0 SHL SUB AND DUP2 JUMP JUMPDEST PUSH2 0x123 PUSH2 0x240 CALLDATASIZE PUSH1 0x4 PUSH2 0x90D JUMP JUMPDEST PUSH2 0x6D7 JUMP JUMPDEST PUSH2 0x265 PUSH2 0x253 CALLDATASIZE PUSH1 0x4 PUSH2 0xA3C JUMP JUMPDEST PUSH1 0x0 PUSH1 0x20 DUP2 SWAP1 MSTORE SWAP1 DUP2 MSTORE PUSH1 0x40 SWAP1 KECCAK256 SLOAD DUP2 JUMP JUMPDEST PUSH1 0x40 MLOAD SWAP1 DUP2 MSTORE PUSH1 0x20 ADD PUSH2 0x137 JUMP JUMPDEST PUSH2 0x123 PUSH32 0x0 DUP2 JUMP JUMPDEST PUSH2 0x153 PUSH2 0x2A8 CALLDATASIZE PUSH1 0x4 PUSH2 0xA55 JUMP JUMPDEST PUSH2 0x7B0 JUMP JUMPDEST CALLER PUSH20 0x735B14BB79463307AACBED86DAF3322B1E6226AB EQ PUSH2 0x2E1 JUMPI PUSH1 0x40 MLOAD PUSH4 0x2B2ADD3D PUSH1 0xE0 SHL DUP2 MSTORE PUSH1 0x4 ADD PUSH1 0x40 MLOAD DUP1 SWAP2 SUB SWAP1 REVERT JUMPDEST PUSH1 0x1 PUSH1 0x1 PUSH1 0xA0 SHL SUB DUP2 AND PUSH2 0x308 JUMPI PUSH1 0x40 MLOAD PUSH4 0xD92E233D PUSH1 0xE0 SHL DUP2 MSTORE PUSH1 0x4 ADD PUSH1 0x40 MLOAD DUP1 SWAP2 SUB SWAP1 REVERT JUMPDEST PUSH1 0x4 DUP1 SLOAD PUSH1 0x1 PUSH1 0x1 PUSH1 0xA0 SHL SUB NOT AND PUSH1 0x1 PUSH1 0x1 PUSH1 0xA0 SHL SUB DUP4 AND SWAP1 DUP2 OR SWAP1 SWAP2 SSTORE PUSH1 0x40 MLOAD SWAP1 DUP2 MSTORE PUSH32 0x3ADE88E3922D64780E1BF4460D364C2970B69DA813F9C0C07A1C187B5647636C SWAP1 PUSH1 0x20 ADD JUMPDEST PUSH1 0x40 MLOAD DUP1 SWAP2 SUB SWAP1 LOG1 POP JUMP JUMPDEST CALLER PUSH20 0x735B14BB79463307AACBED86DAF3322B1E6226AB EQ PUSH2 0x391 JUMPI PUSH1 0x40 MLOAD PUSH4 0x2B2ADD3D PUSH1 0xE0 SHL DUP2 MSTORE PUSH1 0x4 ADD PUSH1 0x40 MLOAD DUP1 SWAP2 SUB SWAP1 REVERT JUMPDEST PUSH1 0x3 SLOAD PUSH1 0x0 SWAP1 PUSH2 0x3CC SWAP1 PUSH32 0x0 SWAP1 PUSH1 0x1 PUSH1 0x1 PUSH1 0xA0 SHL SUB AND DUP5 PUSH2 0x6D7 JUMP JUMPDEST PUSH1 0x0 DUP5 DUP2 MSTORE PUSH1 0x2 PUSH1 0x20 SWAP1 DUP2 MSTORE PUSH1 0x40 SWAP2 DUP3 SWAP1 KECCAK256 DUP1 SLOAD PUSH1 0x1 PUSH1 0x1 PUSH1 0xA0 SHL SUB NOT AND PUSH1 0x1 PUSH1 0x1 PUSH1 0xA0 SHL SUB DUP6 AND SWAP1 DUP2 OR SWAP1 SWAP2 SSTORE DUP3 MLOAD DUP8 DUP2 MSTORE SWAP2 DUP3 ADD MSTORE SWAP2 SWAP3 POP PUSH32 0xECEC485166DA6139B13BB7E033E9446E2D35348E80EBF1180D4AFE2DBA1704E SWAP2 ADD PUSH1 0x40 MLOAD DUP1 SWAP2 SUB SWAP1 LOG1 POP POP POP JUMP JUMPDEST CALLER PUSH20 0x735B14BB79463307AACBED86DAF3322B1E6226AB EQ PUSH2 0x46A JUMPI PUSH1 0x40 MLOAD PUSH4 0x2B2ADD3D PUSH1 0xE0 SHL DUP2 MSTORE PUSH1 0x4 ADD PUSH1 0x40 MLOAD DUP1 SWAP2 SUB SWAP1 REVERT JUMPDEST PUSH1 0x1 PUSH1 0x1 PUSH1 0xA0 SHL SUB DUP2 AND PUSH2 0x491 JUMPI PUSH1 0x40 MLOAD PUSH4 0xD92E233D PUSH1 0xE0 SHL DUP2 MSTORE PUSH1 0x4 ADD PUSH1 0x40 MLOAD DUP1 SWAP2 SUB SWAP1 REVERT JUMPDEST PUSH1 0x3 DUP1 SLOAD PUSH1 0x1 PUSH1 0x1 PUSH1 0xA0 SHL SUB NOT AND PUSH1 0x1 PUSH1 0x1 PUSH1 0xA0 SHL SUB DUP4 AND SWAP1 DUP2 OR SWAP1 SWAP2 SSTORE PUSH1 0x40 MLOAD SWAP1 DUP2 MSTORE PUSH32 0xDBA79D534382D1A8AE108E4C8ECB27C6AE42AB8B91D44EEDF88BD329F3868D5E SWAP1 PUSH1 0x20 ADD PUSH2 0x352 JUMP JUMPDEST CALLER PUSH20 0x735B14BB79463307AACBED86DAF3322B1E6226AB EQ PUSH2 0x513 JUMPI PUSH1 0x40 MLOAD PUSH4 0x2B2ADD3D PUSH1 0xE0 SHL DUP2 MSTORE PUSH1 0x4 ADD PUSH1 0x40 MLOAD DUP1 SWAP2 SUB SWAP1 REVERT JUMPDEST PUSH1 0x0 DUP3 DUP2 MSTORE PUSH1 0x20 DUP2 DUP2 MSTORE PUSH1 0x40 SWAP2 DUP3 SWAP1 KECCAK256 DUP4 SWAP1 SSTORE DUP2 MLOAD DUP5 DUP2 MSTORE SWAP1 DUP2 ADD DUP4 SWAP1 MSTORE PUSH32 0x49F492222906AC486C3C1401FA545626DF1F0C0E5A77A05597EA2ED66AF9850D SWAP2 ADD JUMPDEST PUSH1 0x40 MLOAD DUP1 SWAP2 SUB SWAP1 LOG1 POP POP JUMP JUMPDEST CALLER PUSH20 0x735B14BB79463307AACBED86DAF3322B1E6226AB EQ PUSH2 0x595 JUMPI PUSH1 0x40 MLOAD PUSH4 0x2B2ADD3D PUSH1 0xE0 SHL DUP2 MSTORE PUSH1 0x4 ADD PUSH1 0x40 MLOAD DUP1 SWAP2 SUB SWAP1 REVERT JUMPDEST PUSH1 0x1 PUSH1 0x1 PUSH1 0xA0 SHL SUB DUP4 AND PUSH20 0x735B14BB79463307AACBED86DAF3322B1E6226AB EQ DUP1 PUSH2 0x5C8 JUMPI POP PUSH1 0x1 PUSH1 0x1 PUSH1 0xA0 SHL SUB DUP4 AND ADDRESS EQ JUMPDEST ISZERO PUSH2 0x5E6 JUMPI PUSH1 0x40 MLOAD PUSH4 0x416AEBB5 PUSH1 0xE1 SHL DUP2 MSTORE PUSH1 0x4 ADD PUSH1 0x40 MLOAD DUP1 SWAP2 SUB SWAP1 REVERT JUMPDEST PUSH1 0x40 MLOAD PUSH4 0x11F9FBC9 PUSH1 0xE2 SHL DUP2 MSTORE PUSH1 0x1 PUSH1 0x1 PUSH1 0xA0 SHL SUB DUP5 DUP2 AND PUSH1 0x4 DUP4 ADD MSTORE PUSH1 0x24 DUP3 ADD DUP7 SWAP1 MSTORE DUP7 AND SWAP1 PUSH4 0x47E7EF24 SWAP1 PUSH1 0x44 ADD PUSH1 0x20 PUSH1 0x40 MLOAD DUP1 DUP4 SUB DUP2 PUSH1 0x0 DUP8 DUP1 EXTCODESIZE ISZERO DUP1 ISZERO PUSH2 0x630 JUMPI PUSH1 0x0 DUP1 REVERT JUMPDEST POP GAS CALL ISZERO DUP1 ISZERO PUSH2 0x644 JUMPI RETURNDATASIZE PUSH1 0x0 DUP1 RETURNDATACOPY RETURNDATASIZE PUSH1 0x0 REVERT JUMPDEST POP POP POP POP PUSH1 0x40 MLOAD RETURNDATASIZE PUSH1 0x1F NOT PUSH1 0x1F DUP3 ADD AND DUP3 ADD DUP1 PUSH1 0x40 MSTORE POP DUP2 ADD SWAP1 PUSH2 0x668 SWAP2 SWAP1 PUSH2 0x950 JUMP JUMPDEST POP PUSH1 0x40 MLOAD PUSH4 0x6F218AB7 PUSH1 0xE1 SHL DUP2 MSTORE PUSH1 0x1 PUSH1 0x1 PUSH1 0xA0 SHL SUB DUP5 AND SWAP1 PUSH4 0xDE43156E SWAP1 PUSH2 0x69D SWAP1 DUP10 SWAP1 DUP10 SWAP1 DUP10 SWAP1 DUP9 SWAP1 DUP9 SWAP1 PUSH1 0x4 ADD PUSH2 0xACC JUMP JUMPDEST PUSH1 0x0 PUSH1 0x40 MLOAD DUP1 DUP4 SUB DUP2 PUSH1 0x0 DUP8 DUP1 EXTCODESIZE ISZERO DUP1 ISZERO PUSH2 0x6B7 JUMPI PUSH1 0x0 DUP1 REVERT JUMPDEST POP GAS CALL ISZERO DUP1 ISZERO PUSH2 0x6CB JUMPI RETURNDATASIZE PUSH1 0x0 DUP1 RETURNDATACOPY RETURNDATASIZE PUSH1 0x0 REVERT JUMPDEST POP POP POP POP POP POP POP POP POP POP JUMP JUMPDEST PUSH1 0x0 DUP1 PUSH1 0x0 PUSH2 0x6E6 DUP6 DUP6 PUSH2 0x843 JUMP JUMPDEST PUSH1 0x40 MLOAD PUSH12 0xFFFFFFFFFFFFFFFFFFFFFFFF NOT PUSH1 0x60 DUP5 DUP2 SHL DUP3 AND PUSH1 0x20 DUP5 ADD MSTORE DUP4 SWAP1 SHL AND PUSH1 0x34 DUP3 ADD MSTORE SWAP2 SWAP4 POP SWAP2 POP DUP7 SWAP1 PUSH1 0x48 ADD PUSH1 0x40 MLOAD PUSH1 0x20 DUP2 DUP4 SUB SUB DUP2 MSTORE SWAP1 PUSH1 0x40 MSTORE DUP1 MLOAD SWAP1 PUSH1 0x20 ADD KECCAK256 PUSH1 0x40 MLOAD PUSH1 0x20 ADD PUSH2 0x78E SWAP3 SWAP2 SWAP1 PUSH1 0x1 PUSH1 0x1 PUSH1 0xF8 SHL SUB NOT DUP2 MSTORE PUSH1 0x60 SWAP3 SWAP1 SWAP3 SHL PUSH12 0xFFFFFFFFFFFFFFFFFFFFFFFF NOT AND PUSH1 0x1 DUP4 ADD MSTORE PUSH1 0x15 DUP3 ADD MSTORE PUSH32 0x96E8AC4277198FF8B6F785478AA9A39F403CB768DD02CBEE326C3E7DA348845F PUSH1 0x35 DUP3 ADD MSTORE PUSH1 0x55 ADD SWAP1 JUMP JUMPDEST PUSH1 0x40 DUP1 MLOAD PUSH1 0x1F NOT DUP2 DUP5 SUB ADD DUP2 MSTORE SWAP2 SWAP1 MSTORE DUP1 MLOAD PUSH1 0x20 SWAP1 SWAP2 ADD KECCAK256 SWAP7 SWAP6 POP POP POP POP POP POP JUMP JUMPDEST CALLER PUSH20 0x735B14BB79463307AACBED86DAF3322B1E6226AB EQ PUSH2 0x7E4 JUMPI PUSH1 0x40 MLOAD PUSH4 0x2B2ADD3D PUSH1 0xE0 SHL DUP2 MSTORE PUSH1 0x4 ADD PUSH1 0x40 MLOAD DUP1 SWAP2 SUB SWAP1 REVERT JUMPDEST PUSH1 0x0 DUP3 DUP2 MSTORE PUSH1 0x1 PUSH1 0x20 SWAP1 DUP2 MSTORE PUSH1 0x40 SWAP2 DUP3 SWAP1 KECCAK256 DUP1 SLOAD PUSH1 0x1 PUSH1 0x1 PUSH1 0xA0 SHL SUB NOT AND PUSH1 0x1 PUSH1 0x1 PUSH1 0xA0 SHL SUB DUP6 AND SWAP1 DUP2 OR SWAP1 SWAP2 SSTORE DUP3 MLOAD DUP6 DUP2 MSTORE SWAP2 DUP3 ADD MSTORE PUSH32 0xD1B36D30F6248E97C473B4D1348CA164A4EF6759022F54A58EC200326C39C45D SWAP2 ADD PUSH2 0x555 JUMP JUMPDEST PUSH1 0x0 DUP1 DUP3 PUSH1 0x1 PUSH1 0x1 PUSH1 0xA0 SHL SUB AND DUP5 PUSH1 0x1 PUSH1 0x1 PUSH1 0xA0 SHL SUB AND EQ ISZERO PUSH2 0x879 JUMPI PUSH1 0x40 MLOAD PUSH4 0x658F3E7F PUSH1 0xE1 SHL DUP2 MSTORE PUSH1 0x4 ADD PUSH1 0x40 MLOAD DUP1 SWAP2 SUB SWAP1 REVERT JUMPDEST DUP3 PUSH1 0x1 PUSH1 0x1 PUSH1 0xA0 SHL SUB AND DUP5 PUSH1 0x1 PUSH1 0x1 PUSH1 0xA0 SHL SUB AND LT PUSH2 0x899 JUMPI DUP3 DUP5 PUSH2 0x89C JUMP JUMPDEST DUP4 DUP4 JUMPDEST SWAP1 SWAP3 POP SWAP1 POP PUSH1 0x1 PUSH1 0x1 PUSH1 0xA0 SHL SUB DUP3 AND PUSH2 0x8C8 JUMPI PUSH1 0x40 MLOAD PUSH4 0x3C5A83ED PUSH1 0xE1 SHL DUP2 MSTORE PUSH1 0x4 ADD PUSH1 0x40 MLOAD DUP1 SWAP2 SUB SWAP1 REVERT JUMPDEST SWAP3 POP SWAP3 SWAP1 POP JUMP JUMPDEST DUP1 CALLDATALOAD PUSH1 0x1 PUSH1 0x1 PUSH1 0xA0 SHL SUB DUP2 AND DUP2 EQ PUSH2 0x8E6 JUMPI PUSH1 0x0 DUP1 REVERT JUMPDEST SWAP2 SWAP1 POP JUMP JUMPDEST PUSH1 0x0 PUSH1 0x20 DUP3 DUP5 SUB SLT ISZERO PUSH2 0x8FD JUMPI PUSH1 0x0 DUP1 REVERT JUMPDEST PUSH2 0x906 DUP3 PUSH2 0x8CF JUMP JUMPDEST SWAP4 SWAP3 POP POP POP JUMP JUMPDEST PUSH1 0x0 DUP1 PUSH1 0x0 PUSH1 0x60 DUP5 DUP7 SUB SLT ISZERO PUSH2 0x922 JUMPI PUSH1 0x0 DUP1 REVERT JUMPDEST PUSH2 0x92B DUP5 PUSH2 0x8CF JUMP JUMPDEST SWAP3 POP PUSH2 0x939 PUSH1 0x20 DUP6 ADD PUSH2 0x8CF JUMP JUMPDEST SWAP2 POP PUSH2 0x947 PUSH1 0x40 DUP6 ADD PUSH2 0x8CF JUMP JUMPDEST SWAP1 POP SWAP3 POP SWAP3 POP SWAP3 JUMP JUMPDEST PUSH1 0x0 PUSH1 0x20 DUP3 DUP5 SUB SLT ISZERO PUSH2 0x962 JUMPI PUSH1 0x0 DUP1 REVERT JUMPDEST DUP2 MLOAD DUP1 ISZERO ISZERO DUP2 EQ PUSH2 0x906 JUMPI PUSH1 0x0 DUP1 REVERT JUMPDEST PUSH1 0x0 DUP1 PUSH1 0x0 DUP1 PUSH1 0x0 DUP1 PUSH1 0xA0 DUP8 DUP10 SUB SLT ISZERO PUSH2 0x98B JUMPI PUSH1 0x0 DUP1 REVERT JUMPDEST DUP7 CALLDATALOAD PUSH8 0xFFFFFFFFFFFFFFFF DUP1 DUP3 GT ISZERO PUSH2 0x9A3 JUMPI PUSH1 0x0 DUP1 REVERT JUMPDEST SWAP1 DUP9 ADD SWAP1 PUSH1 0x60 DUP3 DUP12 SUB SLT ISZERO PUSH2 0x9B7 JUMPI PUSH1 0x0 DUP1 REVERT JUMPDEST DUP2 SWAP8 POP PUSH2 0x9C6 PUSH1 0x20 DUP11 ADD PUSH2 0x8CF JUMP JUMPDEST SWAP7 POP PUSH1 0x40 DUP10 ADD CALLDATALOAD SWAP6 POP PUSH2 0x9DB PUSH1 0x60 DUP11 ADD PUSH2 0x8CF JUMP JUMPDEST SWAP5 POP PUSH1 0x80 DUP10 ADD CALLDATALOAD SWAP2 POP DUP1 DUP3 GT ISZERO PUSH2 0x9F1 JUMPI PUSH1 0x0 DUP1 REVERT JUMPDEST DUP2 DUP10 ADD SWAP2 POP DUP10 PUSH1 0x1F DUP4 ADD SLT PUSH2 0xA05 JUMPI PUSH1 0x0 DUP1 REVERT JUMPDEST DUP2 CALLDATALOAD DUP2 DUP2 GT ISZERO PUSH2 0xA14 JUMPI PUSH1 0x0 DUP1 REVERT JUMPDEST DUP11 PUSH1 0x20 DUP3 DUP6 ADD ADD GT ISZERO PUSH2 0xA26 JUMPI PUSH1 0x0 DUP1 REVERT JUMPDEST PUSH1 0x20 DUP4 ADD SWAP5 POP DUP1 SWAP4 POP POP POP POP SWAP3 SWAP6 POP SWAP3 SWAP6 POP SWAP3 SWAP6 JUMP JUMPDEST PUSH1 0x0 PUSH1 0x20 DUP3 DUP5 SUB SLT ISZERO PUSH2 0xA4E JUMPI PUSH1 0x0 DUP1 REVERT JUMPDEST POP CALLDATALOAD SWAP2 SWAP1 POP JUMP JUMPDEST PUSH1 0x0 DUP1 PUSH1 0x40 DUP4 DUP6 SUB SLT ISZERO PUSH2 0xA68 JUMPI PUSH1 0x0 DUP1 REVERT JUMPDEST DUP3 CALLDATALOAD SWAP2 POP PUSH2 0xA78 PUSH1 0x20 DUP5 ADD PUSH2 0x8CF JUMP JUMPDEST SWAP1 POP SWAP3 POP SWAP3 SWAP1 POP JUMP JUMPDEST PUSH1 0x0 DUP1 PUSH1 0x40 DUP4 DUP6 SUB SLT ISZERO PUSH2 0xA94 JUMPI PUSH1 0x0 DUP1 REVERT JUMPDEST POP POP DUP1 CALLDATALOAD SWAP3 PUSH1 0x20 SWAP1 SWAP2 ADD CALLDATALOAD SWAP2 POP JUMP JUMPDEST DUP2 DUP4 MSTORE DUP2 DUP2 PUSH1 0x20 DUP6 ADD CALLDATACOPY POP PUSH1 0x0 DUP3 DUP3 ADD PUSH1 0x20 SWAP1 DUP2 ADD SWAP2 SWAP1 SWAP2 MSTORE PUSH1 0x1F SWAP1 SWAP2 ADD PUSH1 0x1F NOT AND SWAP1 SWAP2 ADD ADD SWAP1 JUMP JUMPDEST PUSH1 0x80 DUP2 MSTORE PUSH1 0x0 DUP7 CALLDATALOAD PUSH1 0x1E NOT DUP9 CALLDATASIZE SUB ADD DUP2 SLT PUSH2 0xAE6 JUMPI PUSH1 0x0 DUP1 REVERT JUMPDEST DUP8 ADD DUP1 CALLDATALOAD PUSH8 0xFFFFFFFFFFFFFFFF DUP2 GT ISZERO PUSH2 0xAFF JUMPI PUSH1 0x0 DUP1 REVERT JUMPDEST DUP1 CALLDATASIZE SUB DUP10 SGT ISZERO PUSH2 0xB0E JUMPI PUSH1 0x0 DUP1 REVERT JUMPDEST PUSH1 0x60 PUSH1 0x80 DUP6 ADD MSTORE PUSH2 0xB26 PUSH1 0xE0 DUP6 ADD DUP3 PUSH1 0x20 DUP6 ADD PUSH2 0xAA3 JUMP JUMPDEST SWAP2 POP PUSH1 0x1 PUSH1 0x1 PUSH1 0xA0 SHL SUB SWAP1 POP PUSH2 0xB3E PUSH1 0x20 DUP11 ADD PUSH2 0x8CF JUMP JUMPDEST AND PUSH1 0xA0 DUP5 ADD MSTORE PUSH1 0x40 DUP9 ADD CALLDATALOAD PUSH1 0xC0 DUP5 ADD MSTORE PUSH1 0x1 PUSH1 0x1 PUSH1 0xA0 SHL SUB DUP8 AND PUSH1 0x20 DUP5 ADD MSTORE DUP6 PUSH1 0x40 DUP5 ADD MSTORE DUP3 DUP2 SUB PUSH1 0x60 DUP5 ADD MSTORE PUSH2 0xB76 DUP2 DUP6 DUP8 PUSH2 0xAA3 JUMP JUMPDEST SWAP9 SWAP8 POP POP POP POP POP POP POP POP JUMP INVALID LOG2 PUSH5 0x6970667358 0x22 SLT KECCAK256 0x27 0xAB 0xA8 0xEF SWAP11 SWAP11 DUP4 0xAC DUP11 0x4D 0x29 BYTE 0x24 DUP9 0xEF SMOD SELFDESTRUCT 0xA7 LOG4 SWAP11 GASLIMIT 0xE 0xB9 SWAP5 0xF NUMBER 0xCB EQ PUSH24 0xD59EC564736F6C6343000807003300000000000000000000 "},"methodIdentifiers":{"FUNGIBLE_MODULE_ADDRESS()":"3ce4a5bc","depositAndCall((bytes,address,uint256),address,uint256,address,bytes)":"c39aca37","gasCoinZRC20ByChainId(uint256)":"0be15547","gasPriceByChainId(uint256)":"d7fd7afb","gasZetaPoolByChainId(uint256)":"513a9c05","setConnectorZEVMAddress(address)":"1f0e251b","setGasCoinZRC20(uint256,address)":"ee2815ba","setGasPrice(uint256,uint256)":"a7cb0507","setGasZetaPool(uint256,address)":"91dd645f","setWZETAContractAddress(address)":"97770dff","uniswapv2FactoryAddress()":"d936a012","uniswapv2PairFor(address,address,address)":"c63585cc","uniswapv2Router02Address()":"842da36d","wZetaContractAddress()":"569541b9","zetaConnectorZEVMAddress()":"c62178ac"}}}}}