{
  "_format": "hh-sol-artifact-1",
  "contractName": "SystemContract",
  "sourceName": "@zetachain/protocol-contracts/contracts/zevm/SystemContract.sol",
  "abi": [
    {
      "inputs": [
        {
          "internalType": "address",
          "name": "wzeta_",
          "type": "address"
        },
        {
          "internalType": "address",
          "name": "uniswapv2Factory_",
          "type": "address"
        },
        {
          "internalType": "address",
          "name": "uniswapv2Router02_",
          "type": "address"
        }
      ],
      "stateMutability": "nonpayable",
      "type": "constructor"
    },
    {
      "inputs": [],
      "name": "CallerIsNotFungibleModule",
      "type": "error"
    },
    {
      "inputs": [],
      "name": "CantBeIdenticalAddresses",
      "type": "error"
    },
    {
      "inputs": [],
      "name": "CantBeZeroAddress",
      "type": "error"
    },
    {
      "inputs": [],
      "name": "InvalidTarget",
      "type": "error"
    },
    {
      "inputs": [],
      "name": "ZeroAddress",
      "type": "error"
    },
    {
      "anonymous": false,
      "inputs": [
        {
          "indexed": false,
          "internalType": "address",
          "name": "",
          "type": "address"
        }
      ],
      "name": "SetConnectorZEVM",
      "type": "event"
    },
    {
      "anonymous": false,
      "inputs": [
        {
          "indexed": false,
          "internalType": "uint256",
          "name": "",
          "type": "uint256"
        },
        {
          "indexed": false,
          "internalType": "address",
          "name": "",
          "type": "address"
        }
      ],
      "name": "SetGasCoin",
      "type": "event"
    },
    {
      "anonymous": false,
      "inputs": [
        {
          "indexed": false,
          "internalType": "uint256",
          "name": "",
          "type": "uint256"
        },
        {
          "indexed": false,
          "internalType": "uint256",
          "name": "",
          "type": "uint256"
        }
      ],
      "name": "SetGasPrice",
      "type": "event"
    },
    {
      "anonymous": false,
      "inputs": [
        {
          "indexed": false,
          "internalType": "uint256",
          "name": "",
          "type": "uint256"
        },
        {
          "indexed": false,
          "internalType": "address",
          "name": "",
          "type": "address"
        }
      ],
      "name": "SetGasZetaPool",
      "type": "event"
    },
    {
      "anonymous": false,
      "inputs": [
        {
          "indexed": false,
          "internalType": "address",
          "name": "",
          "type": "address"
        }
      ],
      "name": "SetWZeta",
      "type": "event"
    },
    {
      "anonymous": false,
      "inputs": [],
      "name": "SystemContractDeployed",
      "type": "event"
    },
    {
      "inputs": [],
      "name": "FUNGIBLE_MODULE_ADDRESS",
      "outputs": [
        {
          "internalType": "address",
          "name": "",
          "type": "address"
        }
      ],
      "stateMutability": "view",
      "type": "function"
    },
    {
      "inputs": [
        {
          "components": [
            {
              "internalType": "bytes",
              "name": "origin",
              "type": "bytes"
            },
            {
              "internalType": "address",
              "name": "sender",
              "type": "address"
            },
            {
              "internalType": "uint256",
              "name": "chainID",
              "type": "uint256"
            }
          ],
          "internalType": "struct zContext",
          "name": "context",
          "type": "tuple"
        },
        {
          "internalType": "address",
          "name": "zrc20",
          "type": "address"
        },
        {
          "internalType": "uint256",
          "name": "amount",
          "type": "uint256"
        },
        {
          "internalType": "address",
          "name": "target",
          "type": "address"
        },
        {
          "internalType": "bytes",
          "name": "message",
          "type": "bytes"
        }
      ],
      "name": "depositAndCall",
      "outputs": [],
      "stateMutability": "nonpayable",
      "type": "function"
    },
    {
      "inputs": [
        {
          "internalType": "uint256",
          "name": "",
          "type": "uint256"
        }
      ],
      "name": "gasCoinZRC20ByChainId",
      "outputs": [
        {
          "internalType": "address",
          "name": "",
          "type": "address"
        }
      ],
      "stateMutability": "view",
      "type": "function"
    },
    {
      "inputs": [
        {
          "internalType": "uint256",
          "name": "",
          "type": "uint256"
        }
      ],
      "name": "gasPriceByChainId",
      "outputs": [
        {
          "internalType": "uint256",
          "name": "",
          "type": "uint256"
        }
      ],
      "stateMutability": "view",
      "type": "function"
    },
    {
      "inputs": [
        {
          "internalType": "uint256",
          "name": "",
          "type": "uint256"
        }
      ],
      "name": "gasZetaPoolByChainId",
      "outputs": [
        {
          "internalType": "address",
          "name": "",
          "type": "address"
        }
      ],
      "stateMutability": "view",
      "type": "function"
    },
    {
      "inputs": [
        {
          "internalType": "address",
          "name": "addr",
          "type": "address"
        }
      ],
      "name": "setConnectorZEVMAddress",
      "outputs": [],
      "stateMutability": "nonpayable",
      "type": "function"
    },
    {
      "inputs": [
        {
          "internalType": "uint256",
          "name": "chainID",
          "type": "uint256"
        },
        {
          "internalType": "address",
          "name": "zrc20",
          "type": "address"
        }
      ],
      "name": "setGasCoinZRC20",
      "outputs": [],
      "stateMutability": "nonpayable",
      "type": "function"
    },
    {
      "inputs": [
        {
          "internalType": "uint256",
          "name": "chainID",
          "type": "uint256"
        },
        {
          "internalType": "uint256",
          "name": "price",
          "type": "uint256"
        }
      ],
      "name": "setGasPrice",
      "outputs": [],
      "stateMutability": "nonpayable",
      "type": "function"
    },
    {
      "inputs": [
        {
          "internalType": "uint256",
          "name": "chainID",
          "type": "uint256"
        },
        {
          "internalType": "address",
          "name": "erc20",
          "type": "address"
        }
      ],
      "name": "setGasZetaPool",
      "outputs": [],
      "stateMutability": "nonpayable",
      "type": "function"
    },
    {
      "inputs": [
        {
          "internalType": "address",
          "name": "addr",
          "type": "address"
        }
      ],
      "name": "setWZETAContractAddress",
      "outputs": [],
      "stateMutability": "nonpayable",
      "type": "function"
    },
    {
      "inputs": [],
      "name": "uniswapv2FactoryAddress",
      "outputs": [
        {
          "internalType": "address",
          "name": "",
          "type": "address"
        }
      ],
      "stateMutability": "view",
      "type": "function"
    },
    {
      "inputs": [
        {
          "internalType": "address",
          "name": "factory",
          "type": "address"
        },
        {
          "internalType": "address",
          "name": "tokenA",
          "type": "address"
        },
        {
          "internalType": "address",
          "name": "tokenB",
          "type": "address"
        }
      ],
      "name": "uniswapv2PairFor",
      "outputs": [
        {
          "internalType": "address",
          "name": "pair",
          "type": "address"
        }
      ],
      "stateMutability": "pure",
      "type": "function"
    },
    {
      "inputs": [],
      "name": "uniswapv2Router02Address",
      "outputs": [
        {
          "internalType": "address",
          "name": "",
          "type": "address"
        }
      ],
      "stateMutability": "view",
      "type": "function"
    },
    {
      "inputs": [],
      "name": "wZetaContractAddress",
      "outputs": [
        {
          "internalType": "address",
          "name": "",
          "type": "address"
        }
      ],
      "stateMutability": "view",
      "type": "function"
    },
    {
      "inputs": [],
      "name": "zetaConnectorZEVMAddress",
      "outputs": [
        {
          "internalType": "address",
          "name": "",
          "type": "address"
        }
      ],
      "stateMutability": "view",
      "type": "function"
    }
  ],
  "bytecode": "0x60c060405234801561001057600080fd5b50604051610d14380380610d1483398101604081905261002f916100e7565b3373735b14bb79463307aacbed86daf3322b1e6226ab1461006357604051632b2add3d60e01b815260040160405180910390fd5b600380546001600160a01b0385166001600160a01b03199091161790556001600160601b0319606083811b821660805282901b1660a0526040517f80699e81136d69cb8367ad52a994e25c722a86da654b561d0c14b61a777e7ac590600090a150505061012a565b80516001600160a01b03811681146100e257600080fd5b919050565b6000806000606084860312156100fc57600080fd5b610105846100cb565b9250610113602085016100cb565b9150610121604085016100cb565b90509250925092565b60805160601c60a05160601c610bb861015c60003960006101b1015260008181610278015261039d0152610bb86000f3fe608060405234801561001057600080fd5b50600436106100f55760003560e01c806397770dff11610097578063c63585cc11610066578063c63585cc14610232578063d7fd7afb14610245578063d936a01214610273578063ee2815ba1461029a57600080fd5b806397770dff146101e6578063a7cb0507146101f9578063c39aca371461020c578063c62178ac1461021f57600080fd5b8063513a9c05116100d3578063513a9c0514610170578063569541b914610199578063842da36d146101ac57806391dd645f146101d357600080fd5b80630be15547146100fa5780631f0e251b146101405780633ce4a5bc14610155575b600080fd5b610123610108366004610a3c565b6001602052600090815260409020546001600160a01b031681565b6040516001600160a01b0390911681526020015b60405180910390f35b61015361014e3660046108eb565b6102ad565b005b61012373735b14bb79463307aacbed86daf3322b1e6226ab81565b61012361017e366004610a3c565b6002602052600090815260409020546001600160a01b031681565b600354610123906001600160a01b031681565b6101237f000000000000000000000000000000000000000000000000000000000000000081565b6101536101e1366004610a55565b61035d565b6101536101f43660046108eb565b610436565b610153610207366004610a81565b6104df565b61015361021a366004610972565b610561565b600454610123906001600160a01b031681565b61012361024036600461090d565b6106d7565b610265610253366004610a3c565b60006020819052908152604090205481565b604051908152602001610137565b6101237f000000000000000000000000000000000000000000000000000000000000000081565b6101536102a8366004610a55565b6107b0565b3373735b14bb79463307aacbed86daf3322b1e6226ab146102e157604051632b2add3d60e01b815260040160405180910390fd5b6001600160a01b0381166103085760405163d92e233d60e01b815260040160405180910390fd5b600480546001600160a01b0319166001600160a01b0383169081179091556040519081527f3ade88e3922d64780e1bf4460d364c2970b69da813f9c0c07a1c187b5647636c906020015b60405180910390a150565b3373735b14bb79463307aacbed86daf3322b1e6226ab1461039157604051632b2add3d60e01b815260040160405180910390fd5b6003546000906103cc907f0000000000000000000000000000000000000000000000000000000000000000906001600160a01b0316846106d7565b60008481526002602090815260409182902080546001600160a01b0319166001600160a01b0385169081179091558251878152918201529192507f0ecec485166da6139b13bb7e033e9446e2d35348e80ebf1180d4afe2dba1704e910160405180910390a1505050565b3373735b14bb79463307aacbed86daf3322b1e6226ab1461046a57604051632b2add3d60e01b815260040160405180910390fd5b6001600160a01b0381166104915760405163d92e233d60e01b815260040160405180910390fd5b600380546001600160a01b0319166001600160a01b0383169081179091556040519081527fdba79d534382d1a8ae108e4c8ecb27c6ae42ab8b91d44eedf88bd329f3868d5e90602001610352565b3373735b14bb79463307aacbed86daf3322b1e6226ab1461051357604051632b2add3d60e01b815260040160405180910390fd5b6000828152602081815260409182902083905581518481529081018390527f49f492222906ac486c3c1401fa545626df1f0c0e5a77a05597ea2ed66af9850d91015b60405180910390a15050565b3373735b14bb79463307aacbed86daf3322b1e6226ab1461059557604051632b2add3d60e01b815260040160405180910390fd5b6001600160a01b03831673735b14bb79463307aacbed86daf3322b1e6226ab14806105c857506001600160a01b03831630145b156105e65760405163416aebb560e11b815260040160405180910390fd5b6040516311f9fbc960e21b81526001600160a01b038481166004830152602482018690528616906347e7ef2490604401602060405180830381600087803b15801561063057600080fd5b505af1158015610644573d6000803e3d6000fd5b505050506040513d601f19601f820116820180604052508101906106689190610950565b50604051636f218ab760e11b81526001600160a01b0384169063de43156e9061069d9089908990899088908890600401610acc565b600060405180830381600087803b1580156106b757600080fd5b505af11580156106cb573d6000803e3d6000fd5b50505050505050505050565b60008060006106e68585610843565b6040516bffffffffffffffffffffffff19606084811b8216602084015283901b166034820152919350915086906048016040516020818303038152906040528051906020012060405160200161078e9291906001600160f81b0319815260609290921b6bffffffffffffffffffffffff1916600183015260158201527f96e8ac4277198ff8b6f785478aa9a39f403cb768dd02cbee326c3e7da348845f603582015260550190565b60408051601f1981840301815291905280516020909101209695505050505050565b3373735b14bb79463307aacbed86daf3322b1e6226ab146107e457604051632b2add3d60e01b815260040160405180910390fd5b60008281526001602090815260409182902080546001600160a01b0319166001600160a01b0385169081179091558251858152918201527fd1b36d30f6248e97c473b4d1348ca164a4ef6759022f54a58ec200326c39c45d9101610555565b600080826001600160a01b0316846001600160a01b031614156108795760405163658f3e7f60e11b815260040160405180910390fd5b826001600160a01b0316846001600160a01b03161061089957828461089c565b83835b90925090506001600160a01b0382166108c857604051633c5a83ed60e11b815260040160405180910390fd5b9250929050565b80356001600160a01b03811681146108e657600080fd5b919050565b6000602082840312156108fd57600080fd5b610906826108cf565b9392505050565b60008060006060848603121561092257600080fd5b61092b846108cf565b9250610939602085016108cf565b9150610947604085016108cf565b90509250925092565b60006020828403121561096257600080fd5b8151801515811461090657600080fd5b60008060008060008060a0878903121561098b57600080fd5b863567ffffffffffffffff808211156109a357600080fd5b908801906060828b0312156109b757600080fd5b8197506109c660208a016108cf565b9650604089013595506109db60608a016108cf565b945060808901359150808211156109f157600080fd5b818901915089601f830112610a0557600080fd5b813581811115610a1457600080fd5b8a6020828501011115610a2657600080fd5b6020830194508093505050509295509295509295565b600060208284031215610a4e57600080fd5b5035919050565b60008060408385031215610a6857600080fd5b82359150610a78602084016108cf565b90509250929050565b60008060408385031215610a9457600080fd5b50508035926020909101359150565b81835281816020850137506000828201602090810191909152601f909101601f19169091010190565b6080815260008635601e19883603018112610ae657600080fd5b8701803567ffffffffffffffff811115610aff57600080fd5b803603891315610b0e57600080fd5b60606080850152610b2660e085018260208501610aa3565b91506001600160a01b039050610b3e60208a016108cf565b1660a0840152604088013560c08401526001600160a01b03871660208401528560408401528281036060840152610b76818587610aa3565b9897505050505050505056fea264697066735822122027aba8ef9a9a83ac8a4d291a2488ef07ffa7a49a450eb9940f43cb1477d59ec564736f6c63430008070033",
  "linkReferences": {},
  "deployedLinkReferences": {}
}