{
  "_format": "hh-sol-artifact-1",
  "contractName": "ZetaLend",
  "sourceName": "contracts/ZetaLend.sol",
  "abi": [
    {
      "inputs": [
        {
          "internalType": "address",
          "name": "systemContractAddress",
          "type": "address"
        }
      ],
      "stateMutability": "nonpayable",
      "type": "constructor"
    },
    {
      "anonymous": false,
      "inputs": [
        {
          "indexed": true,
          "internalType": "address",
          "name": "user",
          "type": "address"
        },
        {
          "indexed": false,
          "internalType": "address",
          "name": "token",
          "type": "address"
        },
        {
          "indexed": false,
          "internalType": "uint256",
          "name": "amount",
          "type": "uint256"
        }
      ],
      "name": "Borrow",
      "type": "event"
    },
    {
      "anonymous": false,
      "inputs": [
        {
          "indexed": true,
          "internalType": "address",
          "name": "user",
          "type": "address"
        },
        {
          "indexed": false,
          "internalType": "address",
          "name": "token",
          "type": "address"
        },
        {
          "indexed": false,
          "internalType": "uint256",
          "name": "amount",
          "type": "uint256"
        }
      ],
      "name": "Deposit",
      "type": "event"
    },
    {
      "anonymous": false,
      "inputs": [
        {
          "indexed": true,
          "internalType": "address",
          "name": "previousOwner",
          "type": "address"
        },
        {
          "indexed": true,
          "internalType": "address",
          "name": "newOwner",
          "type": "address"
        }
      ],
      "name": "OwnershipTransferred",
      "type": "event"
    },
    {
      "anonymous": false,
      "inputs": [
        {
          "indexed": false,
          "internalType": "address",
          "name": "account",
          "type": "address"
        }
      ],
      "name": "Paused",
      "type": "event"
    },
    {
      "anonymous": false,
      "inputs": [
        {
          "indexed": true,
          "internalType": "address",
          "name": "user",
          "type": "address"
        },
        {
          "indexed": false,
          "internalType": "address",
          "name": "token",
          "type": "address"
        },
        {
          "indexed": false,
          "internalType": "uint256",
          "name": "amount",
          "type": "uint256"
        }
      ],
      "name": "Repay",
      "type": "event"
    },
    {
      "anonymous": false,
      "inputs": [
        {
          "indexed": false,
          "internalType": "address",
          "name": "token",
          "type": "address"
        }
      ],
      "name": "TokenAdded",
      "type": "event"
    },
    {
      "anonymous": false,
      "inputs": [
        {
          "indexed": false,
          "internalType": "address",
          "name": "token",
          "type": "address"
        }
      ],
      "name": "TokenRemoved",
      "type": "event"
    },
    {
      "anonymous": false,
      "inputs": [
        {
          "indexed": false,
          "internalType": "address",
          "name": "account",
          "type": "address"
        }
      ],
      "name": "Unpaused",
      "type": "event"
    },
    {
      "anonymous": false,
      "inputs": [
        {
          "indexed": true,
          "internalType": "address",
          "name": "user",
          "type": "address"
        },
        {
          "indexed": false,
          "internalType": "address",
          "name": "token",
          "type": "address"
        },
        {
          "indexed": false,
          "internalType": "uint256",
          "name": "amount",
          "type": "uint256"
        }
      ],
      "name": "Withdraw",
      "type": "event"
    },
    {
      "inputs": [],
      "name": "LIQUIDATION_THRESHOLD",
      "outputs": [
        {
          "internalType": "uint256",
          "name": "",
          "type": "uint256"
        }
      ],
      "stateMutability": "view",
      "type": "function"
    },
    {
      "inputs": [],
      "name": "MAX_LTV",
      "outputs": [
        {
          "internalType": "uint256",
          "name": "",
          "type": "uint256"
        }
      ],
      "stateMutability": "view",
      "type": "function"
    },
    {
      "inputs": [
        {
          "internalType": "address",
          "name": "token",
          "type": "address"
        }
      ],
      "name": "addSupportedToken",
      "outputs": [],
      "stateMutability": "nonpayable",
      "type": "function"
    },
    {
      "inputs": [
        {
          "internalType": "uint256",
          "name": "amount",
          "type": "uint256"
        }
      ],
      "name": "borrow",
      "outputs": [],
      "stateMutability": "nonpayable",
      "type": "function"
    },
    {
      "inputs": [
        {
          "components": [
            {
              "internalType": "uint256",
              "name": "collateralAmount",
              "type": "uint256"
            },
            {
              "internalType": "uint256",
              "name": "borrowedAmount",
              "type": "uint256"
            },
            {
              "internalType": "address",
              "name": "collateralToken",
              "type": "address"
            },
            {
              "internalType": "address",
              "name": "borrowedToken",
              "type": "address"
            },
            {
              "internalType": "uint256",
              "name": "timestamp",
              "type": "uint256"
            },
            {
              "internalType": "bool",
              "name": "active",
              "type": "bool"
            }
          ],
          "internalType": "struct ZetaLend.Loan",
          "name": "loan",
          "type": "tuple"
        }
      ],
      "name": "calculateLTV",
      "outputs": [
        {
          "internalType": "uint256",
          "name": "",
          "type": "uint256"
        }
      ],
      "stateMutability": "pure",
      "type": "function"
    },
    {
      "inputs": [],
      "name": "deposit",
      "outputs": [],
      "stateMutability": "payable",
      "type": "function"
    },
    {
      "inputs": [
        {
          "internalType": "address",
          "name": "token",
          "type": "address"
        }
      ],
      "name": "emergencyWithdraw",
      "outputs": [],
      "stateMutability": "nonpayable",
      "type": "function"
    },
    {
      "inputs": [],
      "name": "emergencyWithdrawETH",
      "outputs": [],
      "stateMutability": "nonpayable",
      "type": "function"
    },
    {
      "inputs": [
        {
          "internalType": "address",
          "name": "user",
          "type": "address"
        }
      ],
      "name": "getUserLoans",
      "outputs": [
        {
          "components": [
            {
              "internalType": "uint256",
              "name": "collateralAmount",
              "type": "uint256"
            },
            {
              "internalType": "uint256",
              "name": "borrowedAmount",
              "type": "uint256"
            },
            {
              "internalType": "address",
              "name": "collateralToken",
              "type": "address"
            },
            {
              "internalType": "address",
              "name": "borrowedToken",
              "type": "address"
            },
            {
              "internalType": "uint256",
              "name": "timestamp",
              "type": "uint256"
            },
            {
              "internalType": "bool",
              "name": "active",
              "type": "bool"
            }
          ],
          "internalType": "struct ZetaLend.Loan[]",
          "name": "",
          "type": "tuple[]"
        }
      ],
      "stateMutability": "view",
      "type": "function"
    },
    {
      "inputs": [
        {
          "internalType": "address",
          "name": "",
          "type": "address"
        },
        {
          "internalType": "uint256",
          "name": "",
          "type": "uint256"
        }
      ],
      "name": "loans",
      "outputs": [
        {
          "internalType": "uint256",
          "name": "collateralAmount",
          "type": "uint256"
        },
        {
          "internalType": "uint256",
          "name": "borrowedAmount",
          "type": "uint256"
        },
        {
          "internalType": "address",
          "name": "collateralToken",
          "type": "address"
        },
        {
          "internalType": "address",
          "name": "borrowedToken",
          "type": "address"
        },
        {
          "internalType": "uint256",
          "name": "timestamp",
          "type": "uint256"
        },
        {
          "internalType": "bool",
          "name": "active",
          "type": "bool"
        }
      ],
      "stateMutability": "view",
      "type": "function"
    },
    {
      "inputs": [
        {
          "components": [
            {
              "internalType": "bytes",
              "name": "origin",
              "type": "bytes"
            },
            {
              "internalType": "address",
              "name": "sender",
              "type": "address"
            },
            {
              "internalType": "uint256",
              "name": "chainID",
              "type": "uint256"
            }
          ],
          "internalType": "struct zContext",
          "name": "context",
          "type": "tuple"
        },
        {
          "internalType": "address",
          "name": "zrc20",
          "type": "address"
        },
        {
          "internalType": "uint256",
          "name": "amount",
          "type": "uint256"
        },
        {
          "internalType": "bytes",
          "name": "message",
          "type": "bytes"
        }
      ],
      "name": "onCrossChainCall",
      "outputs": [],
      "stateMutability": "nonpayable",
      "type": "function"
    },
    {
      "inputs": [],
      "name": "owner",
      "outputs": [
        {
          "internalType": "address",
          "name": "",
          "type": "address"
        }
      ],
      "stateMutability": "view",
      "type": "function"
    },
    {
      "inputs": [],
      "name": "pause",
      "outputs": [],
      "stateMutability": "nonpayable",
      "type": "function"
    },
    {
      "inputs": [],
      "name": "paused",
      "outputs": [
        {
          "internalType": "bool",
          "name": "",
          "type": "bool"
        }
      ],
      "stateMutability": "view",
      "type": "function"
    },
    {
      "inputs": [
        {
          "internalType": "address",
          "name": "token",
          "type": "address"
        }
      ],
      "name": "removeSupportedToken",
      "outputs": [],
      "stateMutability": "nonpayable",
      "type": "function"
    },
    {
      "inputs": [],
      "name": "renounceOwnership",
      "outputs": [],
      "stateMutability": "nonpayable",
      "type": "function"
    },
    {
      "inputs": [
        {
          "internalType": "uint256",
          "name": "loanIndex",
          "type": "uint256"
        }
      ],
      "name": "repayLoan",
      "outputs": [],
      "stateMutability": "nonpayable",
      "type": "function"
    },
    {
      "inputs": [
        {
          "internalType": "address",
          "name": "",
          "type": "address"
        }
      ],
      "name": "supportedTokens",
      "outputs": [
        {
          "internalType": "bool",
          "name": "",
          "type": "bool"
        }
      ],
      "stateMutability": "view",
      "type": "function"
    },
    {
      "inputs": [],
      "name": "systemContract",
      "outputs": [
        {
          "internalType": "contract SystemContract",
          "name": "",
          "type": "address"
        }
      ],
      "stateMutability": "view",
      "type": "function"
    },
    {
      "inputs": [
        {
          "internalType": "address",
          "name": "newOwner",
          "type": "address"
        }
      ],
      "name": "transferOwnership",
      "outputs": [],
      "stateMutability": "nonpayable",
      "type": "function"
    },
    {
      "inputs": [],
      "name": "unpause",
      "outputs": [],
      "stateMutability": "nonpayable",
      "type": "function"
    },
    {
      "inputs": [
        {
          "internalType": "uint256",
          "name": "loanIndex",
          "type": "uint256"
        }
      ],
      "name": "withdrawCollateral",
      "outputs": [],
      "stateMutability": "nonpayable",
      "type": "function"
    },
    {
      "stateMutability": "payable",
      "type": "receive"
    }
  ],
  "bytecode": "0x60a06040523480156200001157600080fd5b5060405162001e2138038062001e218339810160408190526200003491620000ef565b6000805460ff19169055620000493362000096565b60601b6001600160601b0319166080526000805260026020527fac33ff75c19e70fe83507db0d683fd3465c996598dc972688b7ace676c89077b8054600160ff1990911617905562000121565b600080546001600160a01b03838116610100818102610100600160a81b0319851617855560405193049190911692909183917f8be0079c531659141344cd1fd0a4f28419497f9722a3daafe3b4186f6b6457e091a35050565b6000602082840312156200010257600080fd5b81516001600160a01b03811681146200011a57600080fd5b9392505050565b60805160601c611cda62000147600039600081816103c201526110ec0152611cda6000f3fe6080604052600436106101395760003560e01c80638456cb59116100ab578063ba6019d41161006f578063ba6019d414610390578063bb88b769146103b0578063c5ebeaec146103e4578063d0e30db014610404578063de43156e1461040c578063f2fde38b1461042c57600080fd5b80638456cb59146102b35780638da5cb5b146102c857806390a8ae9b146102ff57806398c61c3714610314578063ab7b1c891461037057600080fd5b80636d69fcaf116100fd5780636d69fcaf146102065780636ff1c9bc14610226578063715018a614610246578063763191901461025b57806381bf8d3d1461027b578063845360171461029e57600080fd5b806302bf321f146101455780633f4ba83a1461017b5780635c975abb146101925780636112fe2e146101b657806368c4ac26146101d657600080fd5b3661014057005b600080fd5b34801561015157600080fd5b5061016561016036600461188e565b61044c565b6040516101729190611ac8565b60405180910390f35b34801561018757600080fd5b5061019061050a565b005b34801561019e57600080fd5b5060005460ff165b6040519015158152602001610172565b3480156101c257600080fd5b506101906101d1366004611a96565b61051c565b3480156101e257600080fd5b506101a66101f136600461188e565b60026020526000908152604090205460ff1681565b34801561021257600080fd5b5061019061022136600461188e565b610801565b34801561023257600080fd5b5061019061024136600461188e565b610864565b34801561025257600080fd5b506101906109db565b34801561026757600080fd5b5061019061027636600461188e565b6109ed565b34801561028757600080fd5b50610290604b81565b604051908152602001610172565b3480156102aa57600080fd5b50610190610a46565b3480156102bf57600080fd5b50610190610b09565b3480156102d457600080fd5b5060005461010090046001600160a01b03165b6040516001600160a01b039091168152602001610172565b34801561030b57600080fd5b50610290605081565b34801561032057600080fd5b5061033461032f3660046118b2565b610b19565b6040805196875260208701959095526001600160a01b0393841694860194909452911660608401526080830152151560a082015260c001610172565b34801561037c57600080fd5b5061019061038b366004611a96565b610b7c565b34801561039c57600080fd5b506102906103ab366004611941565b610da5565b3480156103bc57600080fd5b506102e77f000000000000000000000000000000000000000000000000000000000000000081565b3480156103f057600080fd5b506101906103ff366004611a96565b610dd8565b610190610f79565b34801561041857600080fd5b506101906104273660046119db565b6110d9565b34801561043857600080fd5b5061019061044736600461188e565b6111d5565b6001600160a01b0381166000908152600160209081526040808320805482518185028101850190935280835260609492939192909184015b828210156104ff5760008481526020908190206040805160c08101825260068602909201805483526001808201548486015260028201546001600160a01b039081169385019390935260038201549092166060840152600481015460808401526005015460ff16151560a08301529083529092019101610484565b505050509050919050565b61051261124e565b61051a6112ae565b565b610524611300565b3360009081526001602052604090205481106105875760405162461bcd60e51b815260206004820152601c60248201527f5a6574614c656e643a20696e76616c6964206c6f616e20696e6465780000000060448201526064015b60405180910390fd5b3360009081526001602052604081208054839081106105a8576105a8611c6b565b60009182526020909120600690910201600581015490915060ff1680156105d157506001810154155b61061d5760405162461bcd60e51b815260206004820152601960248201527f5a6574614c656e643a206c6f616e206e6f742072657061696400000000000000604482015260640161057e565b805460058201805460ff191690556000825560028201546001600160a01b03166106df57604051600090339083908381818185875af1925050503d8060008114610683576040519150601f19603f3d011682016040523d82523d6000602084013e610688565b606091505b50509050806106d95760405162461bcd60e51b815260206004820152601f60248201527f5a6574614c656e643a20455448207769746864726177616c206661696c656400604482015260640161057e565b506107b1565b600282015460405163a9059cbb60e01b8152336004820152602481018390526001600160a01b039091169063a9059cbb90604401602060405180830381600087803b15801561072d57600080fd5b505af1158015610741573d6000803e3d6000fd5b505050506040513d601f19601f8201168201806040525081019061076591906118de565b6107b15760405162461bcd60e51b815260206004820152601b60248201527f5a6574614c656e643a207769746864726177616c206661696c65640000000000604482015260640161057e565b6002820154604080516001600160a01b0390921682526020820183905233917f9b1bfa7fa9ee420a16e124f794c35ac9f90472acc99140eb2f6447c714cad8eb91015b60405180910390a2505050565b61080961124e565b6001600160a01b038116600081815260026020908152604091829020805460ff1916600117905590519182527f784c8f4dbf0ffedd6e72c76501c545a70f8b203b30a26ce542bf92ba87c248a491015b60405180910390a150565b61086c61124e565b6040516370a0823160e01b81523060048201526000906001600160a01b038316906370a082319060240160206040518083038186803b1580156108ae57600080fd5b505afa1580156108c2573d6000803e3d6000fd5b505050506040513d601f19601f820116820180604052508101906108e69190611aaf565b9050816001600160a01b031663a9059cbb61090f6000546001600160a01b036101009091041690565b6040516001600160e01b031960e084901b1681526001600160a01b03909116600482015260248101849052604401602060405180830381600087803b15801561095757600080fd5b505af115801561096b573d6000803e3d6000fd5b505050506040513d601f19601f8201168201806040525081019061098f91906118de565b6109d75760405162461bcd60e51b815260206004820152601960248201527816995d1853195b990e881d1c985b9cd9995c8819985a5b1959603a1b604482015260640161057e565b5050565b6109e361124e565b61051a6000611346565b6109f561124e565b6001600160a01b038116600081815260026020908152604091829020805460ff1916905590519182527f4c910b69fe65a61f7531b9c5042b2329ca7179c77290aa7e2eb3afa3c8511fd39101610859565b610a4e61124e565b476000610a696000546001600160a01b036101009091041690565b6001600160a01b03168260405160006040518083038185875af1925050503d8060008114610ab3576040519150601f19603f3d011682016040523d82523d6000602084013e610ab8565b606091505b50509050806109d75760405162461bcd60e51b815260206004820152601f60248201527f5a6574614c656e643a20455448207769746864726177616c206661696c656400604482015260640161057e565b610b1161124e565b61051a61139f565b60016020528160005260406000208181548110610b3557600080fd5b60009182526020909120600690910201805460018201546002830154600384015460048501546005909501549396509194506001600160a01b039081169391169160ff1686565b610b84611300565b336000908152600160205260409020548110610be25760405162461bcd60e51b815260206004820152601c60248201527f5a6574614c656e643a20696e76616c6964206c6f616e20696e64657800000000604482015260640161057e565b336000908152600160205260408120805483908110610c0357610c03611c6b565b60009182526020909120600690910201600581015490915060ff168015610c2e575060008160010154115b610c7a5760405162461bcd60e51b815260206004820152601860248201527f5a6574614c656e643a206e6f20616374697665206c6f616e0000000000000000604482015260640161057e565b600181015460038201546040516323b872dd60e01b8152336004820152306024820152604481018390526001600160a01b03909116906323b872dd90606401602060405180830381600087803b158015610cd357600080fd5b505af1158015610ce7573d6000803e3d6000fd5b505050506040513d601f19601f82011682018060405250810190610d0b91906118de565b610d575760405162461bcd60e51b815260206004820152601a60248201527f5a6574614c656e643a2072657061796d656e74206661696c6564000000000000604482015260640161057e565b600060018301556003820154604080516001600160a01b0390921682526020820183905233917f05f2eeda0e08e4b437f487c8d7d29b14537d15e3488170dc3de5dbdf8dac468491016107f4565b8051600090610db657506000919050565b81516020830151610dc8906064611c01565b610dd29190611bdf565b92915050565b610de0611300565b33600090815260016020526040902054610e0c5760405162461bcd60e51b815260040161057e90611b50565b336000908152600160208190526040822080549091610e2a91611c20565b81548110610e3a57610e3a611c6b565b60009182526020909120600690910201600581015490915060ff168015610e6357506001810154155b610eaf5760405162461bcd60e51b815260206004820152601c60248201527f5a6574614c656e643a20696e76616c6964206c6f616e20737461746500000000604482015260640161057e565b60006064604b8360000154610ec49190611c01565b610ece9190611bdf565b905080831115610f1c5760405162461bcd60e51b81526020600482015260196024820152782d32ba30a632b7321d1032bc31b2b2b2399036b0bc10262a2b60391b604482015260640161057e565b8215610f7457600182018390556003820180546001600160a01b031916905560408051600081526020810185905233917f312a5e5e1079f5dda4e95dbbd0b908b291fd5b992ef22073643ab691572c5b5291016107f4565b505050565b610f81611300565b60003411610fe95760405162461bcd60e51b815260206004820152602f60248201527f5a6574614c656e643a206465706f73697420616d6f756e74206d75737420626560448201526e02067726561746572207468616e203608c1b606482015260840161057e565b6040805160c0810182523480825260006020808401828152848601838152606086018481524260808801908152600160a08901818152338089528288528b892080548085018255908a52888a208c5160069092020190815596519287019290925593516002860180546001600160a01b03199081166001600160a01b0393841617909155935160038701805490951691161790925551600484015590516005909201805460ff191692151592909217909155855192835290820192909252919290917f5548c837ab068cf56a2c2479df0882a4922fd203edb7517321831d95078c5f62910160405180910390a250565b6110e1611300565b336001600160a01b037f000000000000000000000000000000000000000000000000000000000000000016146111595760405162461bcd60e51b815260206004820152601e60248201527f5a6574614c656e643a206f6e6c792073797374656d20636f6e74726163740000604482015260640161057e565b600080611168838501856118fb565b9092509050600160f81b6001600160f81b0319831614156111ab57600061118f8880611b91565b61119891611c37565b90506111a58188886113dc565b506111cc565b600160f91b6001600160f81b0319831614156111cc576111cc81878761153e565b50505050505050565b6111dd61124e565b6001600160a01b0381166112425760405162461bcd60e51b815260206004820152602660248201527f4f776e61626c653a206e6577206f776e657220697320746865207a65726f206160448201526564647265737360d01b606482015260840161057e565b61124b81611346565b50565b6000546001600160a01b0361010090910416331461051a5760405162461bcd60e51b815260206004820181905260248201527f4f776e61626c653a2063616c6c6572206973206e6f7420746865206f776e6572604482015260640161057e565b6112b661182a565b6000805460ff191690557f5db9ee0a495bf2e6ff9c91a7834c1ba4fdd244a5e8aa4e537bd38aeae4b073aa335b6040516001600160a01b03909116815260200160405180910390a1565b60005460ff161561051a5760405162461bcd60e51b815260206004820152601060248201526f14185d5cd8589b194e881c185d5cd95960821b604482015260640161057e565b600080546001600160a01b03838116610100818102610100600160a81b0319851617855560405193049190911692909183917f8be0079c531659141344cd1fd0a4f28419497f9722a3daafe3b4186f6b6457e091a35050565b6113a7611300565b6000805460ff191660011790557f62e78cea01bee320cd4e420270b5ea74000d11b0c9f74754ebdbfc544b05a2586112e33390565b6001600160a01b03821660009081526002602052604090205460ff166114445760405162461bcd60e51b815260206004820152601d60248201527f5a6574614c656e643a20746f6b656e206e6f7420737570706f72746564000000604482015260640161057e565b6040805160c081018252828152600060208083018281526001600160a01b03878116858701818152606087018681524260808901908152600160a08a018181528e8716808b52828a528c8b2080548085018255908c529a8a90208c516006909c02019a8b559751918a019190915592516002890180546001600160a01b0319908116928816929092179055915160038901805490931695169490941790559151600486015590516005909401805460ff191694151594909417909355845192835290820185905291927f5548c837ab068cf56a2c2479df0882a4922fd203edb7517321831d95078c5f62910160405180910390a250505050565b6001600160a01b03821660009081526002602052604090205460ff166115a65760405162461bcd60e51b815260206004820152601d60248201527f5a6574614c656e643a20746f6b656e206e6f7420737570706f72746564000000604482015260640161057e565b6001600160a01b0383166000908152600160205260409020546115db5760405162461bcd60e51b815260040161057e90611b50565b6001600160a01b038316600090815260016020819052604082208054909161160291611c20565b8154811061161257611612611c6b565b60009182526020909120600690910201600581015490915060ff16801561163b57506001810154155b6116875760405162461bcd60e51b815260206004820152601c60248201527f5a6574614c656e643a20696e76616c6964206c6f616e20737461746500000000604482015260640161057e565b60006064604b836000015461169c9190611c01565b6116a69190611bdf565b9050808311156116f45760405162461bcd60e51b81526020600482015260196024820152782d32ba30a632b7321d1032bc31b2b2b2399036b0bc10262a2b60391b604482015260640161057e565b60405163a9059cbb60e01b81526001600160a01b0386811660048301526024820185905285169063a9059cbb90604401602060405180830381600087803b15801561173e57600080fd5b505af1158015611752573d6000803e3d6000fd5b505050506040513d601f19601f8201168201806040525081019061177691906118de565b6117be5760405162461bcd60e51b815260206004820152601960248201527816995d1853195b990e881d1c985b9cd9995c8819985a5b1959603a1b604482015260640161057e565b600182018390556003820180546001600160a01b0319166001600160a01b038681169182179092556040805191825260208201869052918716917f312a5e5e1079f5dda4e95dbbd0b908b291fd5b992ef22073643ab691572c5b52910160405180910390a25050505050565b60005460ff1661051a5760405162461bcd60e51b815260206004820152601460248201527314185d5cd8589b194e881b9bdd081c185d5cd95960621b604482015260640161057e565b803561187e81611c81565b919050565b803561187e81611c96565b6000602082840312156118a057600080fd5b81356118ab81611c81565b9392505050565b600080604083850312156118c557600080fd5b82356118d081611c81565b946020939093013593505050565b6000602082840312156118f057600080fd5b81516118ab81611c96565b6000806040838503121561190e57600080fd5b82356001600160f81b03198116811461192657600080fd5b9150602083013561193681611c81565b809150509250929050565b600060c0828403121561195357600080fd5b60405160c0810181811067ffffffffffffffff8211171561198457634e487b7160e01b600052604160045260246000fd5b806040525082358152602083013560208201526119a360408401611873565b60408201526119b460608401611873565b6060820152608083013560808201526119cf60a08401611883565b60a08201529392505050565b6000806000806000608086880312156119f357600080fd5b853567ffffffffffffffff80821115611a0b57600080fd5b908701906060828a031215611a1f57600080fd5b909550602087013590611a3182611c81565b9094506040870135935060608701359080821115611a4e57600080fd5b818801915088601f830112611a6257600080fd5b813581811115611a7157600080fd5b896020828501011115611a8357600080fd5b9699959850939650602001949392505050565b600060208284031215611aa857600080fd5b5035919050565b600060208284031215611ac157600080fd5b5051919050565b602080825282518282018190526000919060409081850190868401855b82811015611b43578151805185528681015187860152858101516001600160a01b0390811687870152606080830151909116908601526080808201519086015260a09081015115159085015260c09093019290850190600101611ae5565b5091979650505050505050565b60208082526021908201527f5a6574614c656e643a206e6f20636f6c6c61746572616c206465706f736974656040820152601960fa1b606082015260800190565b6000808335601e19843603018112611ba857600080fd5b83018035915067ffffffffffffffff821115611bc357600080fd5b602001915036819003821315611bd857600080fd5b9250929050565b600082611bfc57634e487b7160e01b600052601260045260246000fd5b500490565b6000816000190483118215151615611c1b57611c1b611c55565b500290565b600082821015611c3257611c32611c55565b500390565b80356020831015610dd257600019602084900360031b1b1692915050565b634e487b7160e01b600052601160045260246000fd5b634e487b7160e01b600052603260045260246000fd5b6001600160a01b038116811461124b57600080fd5b801515811461124b57600080fdfea26469706673582212203a58a39ca47f6fbe5e06f8ccbde7b72845712d5ec39dd829bcd0e4387a63755e64736f6c63430008070033",
  "linkReferences": {},
  "deployedLinkReferences": {}
}