{
  "_format": "hh-sol-artifact-1",
  "contractName": "ZetaLend",
  "sourceName": "contracts/ZetaLend.sol",
  "abi": [
    {
      "inputs": [
        {
          "internalType": "address",
          "name": "systemContractAddress",
          "type": "address"
        }
      ],
      "stateMutability": "nonpayable",
      "type": "constructor"
    },
    {
      "anonymous": false,
      "inputs": [
        {
          "indexed": true,
          "internalType": "address",
          "name": "user",
          "type": "address"
        },
        {
          "indexed": false,
          "internalType": "address",
          "name": "token",
          "type": "address"
        },
        {
          "indexed": false,
          "internalType": "uint256",
          "name": "amount",
          "type": "uint256"
        }
      ],
      "name": "Borrow",
      "type": "event"
    },
    {
      "anonymous": false,
      "inputs": [
        {
          "indexed": true,
          "internalType": "address",
          "name": "user",
          "type": "address"
        },
        {
          "indexed": false,
          "internalType": "address",
          "name": "token",
          "type": "address"
        },
        {
          "indexed": false,
          "internalType": "uint256",
          "name": "amount",
          "type": "uint256"
        }
      ],
      "name": "Deposit",
      "type": "event"
    },
    {
      "anonymous": false,
      "inputs": [
        {
          "indexed": true,
          "internalType": "address",
          "name": "previousOwner",
          "type": "address"
        },
        {
          "indexed": true,
          "internalType": "address",
          "name": "newOwner",
          "type": "address"
        }
      ],
      "name": "OwnershipTransferred",
      "type": "event"
    },
    {
      "anonymous": false,
      "inputs": [
        {
          "indexed": false,
          "internalType": "address",
          "name": "account",
          "type": "address"
        }
      ],
      "name": "Paused",
      "type": "event"
    },
    {
      "anonymous": false,
      "inputs": [
        {
          "indexed": true,
          "internalType": "address",
          "name": "user",
          "type": "address"
        },
        {
          "indexed": false,
          "internalType": "address",
          "name": "token",
          "type": "address"
        },
        {
          "indexed": false,
          "internalType": "uint256",
          "name": "amount",
          "type": "uint256"
        }
      ],
      "name": "Repay",
      "type": "event"
    },
    {
      "anonymous": false,
      "inputs": [
        {
          "indexed": false,
          "internalType": "address",
          "name": "token",
          "type": "address"
        }
      ],
      "name": "TokenAdded",
      "type": "event"
    },
    {
      "anonymous": false,
      "inputs": [
        {
          "indexed": false,
          "internalType": "address",
          "name": "token",
          "type": "address"
        }
      ],
      "name": "TokenRemoved",
      "type": "event"
    },
    {
      "anonymous": false,
      "inputs": [
        {
          "indexed": false,
          "internalType": "address",
          "name": "account",
          "type": "address"
        }
      ],
      "name": "Unpaused",
      "type": "event"
    },
    {
      "anonymous": false,
      "inputs": [
        {
          "indexed": true,
          "internalType": "address",
          "name": "user",
          "type": "address"
        },
        {
          "indexed": false,
          "internalType": "address",
          "name": "token",
          "type": "address"
        },
        {
          "indexed": false,
          "internalType": "uint256",
          "name": "amount",
          "type": "uint256"
        }
      ],
      "name": "Withdraw",
      "type": "event"
    },
    {
      "inputs": [],
      "name": "LIQUIDATION_THRESHOLD",
      "outputs": [
        {
          "internalType": "uint256",
          "name": "",
          "type": "uint256"
        }
      ],
      "stateMutability": "view",
      "type": "function"
    },
    {
      "inputs": [],
      "name": "MAX_LTV",
      "outputs": [
        {
          "internalType": "uint256",
          "name": "",
          "type": "uint256"
        }
      ],
      "stateMutability": "view",
      "type": "function"
    },
    {
      "inputs": [
        {
          "internalType": "address",
          "name": "token",
          "type": "address"
        }
      ],
      "name": "addSupportedToken",
      "outputs": [],
      "stateMutability": "nonpayable",
      "type": "function"
    },
    {
      "inputs": [
        {
          "components": [
            {
              "internalType": "uint256",
              "name": "collateralAmount",
              "type": "uint256"
            },
            {
              "internalType": "uint256",
              "name": "borrowedAmount",
              "type": "uint256"
            },
            {
              "internalType": "address",
              "name": "collateralToken",
              "type": "address"
            },
            {
              "internalType": "address",
              "name": "borrowedToken",
              "type": "address"
            },
            {
              "internalType": "uint256",
              "name": "timestamp",
              "type": "uint256"
            },
            {
              "internalType": "bool",
              "name": "active",
              "type": "bool"
            }
          ],
          "internalType": "struct ZetaLend.Loan",
          "name": "loan",
          "type": "tuple"
        }
      ],
      "name": "calculateLTV",
      "outputs": [
        {
          "internalType": "uint256",
          "name": "",
          "type": "uint256"
        }
      ],
      "stateMutability": "pure",
      "type": "function"
    },
    {
      "inputs": [
        {
          "internalType": "address",
          "name": "token",
          "type": "address"
        }
      ],
      "name": "emergencyWithdraw",
      "outputs": [],
      "stateMutability": "nonpayable",
      "type": "function"
    },
    {
      "inputs": [
        {
          "internalType": "address",
          "name": "user",
          "type": "address"
        }
      ],
      "name": "getUserLoans",
      "outputs": [
        {
          "components": [
            {
              "internalType": "uint256",
              "name": "collateralAmount",
              "type": "uint256"
            },
            {
              "internalType": "uint256",
              "name": "borrowedAmount",
              "type": "uint256"
            },
            {
              "internalType": "address",
              "name": "collateralToken",
              "type": "address"
            },
            {
              "internalType": "address",
              "name": "borrowedToken",
              "type": "address"
            },
            {
              "internalType": "uint256",
              "name": "timestamp",
              "type": "uint256"
            },
            {
              "internalType": "bool",
              "name": "active",
              "type": "bool"
            }
          ],
          "internalType": "struct ZetaLend.Loan[]",
          "name": "",
          "type": "tuple[]"
        }
      ],
      "stateMutability": "view",
      "type": "function"
    },
    {
      "inputs": [
        {
          "internalType": "address",
          "name": "",
          "type": "address"
        },
        {
          "internalType": "uint256",
          "name": "",
          "type": "uint256"
        }
      ],
      "name": "loans",
      "outputs": [
        {
          "internalType": "uint256",
          "name": "collateralAmount",
          "type": "uint256"
        },
        {
          "internalType": "uint256",
          "name": "borrowedAmount",
          "type": "uint256"
        },
        {
          "internalType": "address",
          "name": "collateralToken",
          "type": "address"
        },
        {
          "internalType": "address",
          "name": "borrowedToken",
          "type": "address"
        },
        {
          "internalType": "uint256",
          "name": "timestamp",
          "type": "uint256"
        },
        {
          "internalType": "bool",
          "name": "active",
          "type": "bool"
        }
      ],
      "stateMutability": "view",
      "type": "function"
    },
    {
      "inputs": [
        {
          "components": [
            {
              "internalType": "bytes",
              "name": "origin",
              "type": "bytes"
            },
            {
              "internalType": "address",
              "name": "sender",
              "type": "address"
            },
            {
              "internalType": "uint256",
              "name": "chainID",
              "type": "uint256"
            }
          ],
          "internalType": "struct zContext",
          "name": "context",
          "type": "tuple"
        },
        {
          "internalType": "address",
          "name": "zrc20",
          "type": "address"
        },
        {
          "internalType": "uint256",
          "name": "amount",
          "type": "uint256"
        },
        {
          "internalType": "bytes",
          "name": "message",
          "type": "bytes"
        }
      ],
      "name": "onCrossChainCall",
      "outputs": [],
      "stateMutability": "nonpayable",
      "type": "function"
    },
    {
      "inputs": [],
      "name": "owner",
      "outputs": [
        {
          "internalType": "address",
          "name": "",
          "type": "address"
        }
      ],
      "stateMutability": "view",
      "type": "function"
    },
    {
      "inputs": [],
      "name": "pause",
      "outputs": [],
      "stateMutability": "nonpayable",
      "type": "function"
    },
    {
      "inputs": [],
      "name": "paused",
      "outputs": [
        {
          "internalType": "bool",
          "name": "",
          "type": "bool"
        }
      ],
      "stateMutability": "view",
      "type": "function"
    },
    {
      "inputs": [
        {
          "internalType": "address",
          "name": "token",
          "type": "address"
        }
      ],
      "name": "removeSupportedToken",
      "outputs": [],
      "stateMutability": "nonpayable",
      "type": "function"
    },
    {
      "inputs": [],
      "name": "renounceOwnership",
      "outputs": [],
      "stateMutability": "nonpayable",
      "type": "function"
    },
    {
      "inputs": [
        {
          "internalType": "uint256",
          "name": "loanIndex",
          "type": "uint256"
        }
      ],
      "name": "repayLoan",
      "outputs": [],
      "stateMutability": "nonpayable",
      "type": "function"
    },
    {
      "inputs": [
        {
          "internalType": "address",
          "name": "",
          "type": "address"
        }
      ],
      "name": "supportedTokens",
      "outputs": [
        {
          "internalType": "bool",
          "name": "",
          "type": "bool"
        }
      ],
      "stateMutability": "view",
      "type": "function"
    },
    {
      "inputs": [],
      "name": "systemContract",
      "outputs": [
        {
          "internalType": "contract SystemContract",
          "name": "",
          "type": "address"
        }
      ],
      "stateMutability": "view",
      "type": "function"
    },
    {
      "inputs": [
        {
          "internalType": "address",
          "name": "newOwner",
          "type": "address"
        }
      ],
      "name": "transferOwnership",
      "outputs": [],
      "stateMutability": "nonpayable",
      "type": "function"
    },
    {
      "inputs": [],
      "name": "unpause",
      "outputs": [],
      "stateMutability": "nonpayable",
      "type": "function"
    },
    {
      "inputs": [
        {
          "internalType": "uint256",
          "name": "loanIndex",
          "type": "uint256"
        }
      ],
      "name": "withdrawCollateral",
      "outputs": [],
      "stateMutability": "nonpayable",
      "type": "function"
    }
  ],
  "bytecode": "0x60a060405234801561001057600080fd5b5060405161181538038061181583398101604081905261002f916100b0565b6000805460ff1916905561004233610057565b60601b6001600160601b0319166080526100e0565b600080546001600160a01b03838116610100818102610100600160a81b0319851617855560405193049190911692909183917f8be0079c531659141344cd1fd0a4f28419497f9722a3daafe3b4186f6b6457e091a35050565b6000602082840312156100c257600080fd5b81516001600160a01b03811681146100d957600080fd5b9392505050565b60805160601c611710610105600039600081816102b10152610b2501526117106000f3fe608060405234801561001057600080fd5b50600436106101215760003560e01c806381bf8d3d116100ad578063ab7b1c8911610071578063ab7b1c8914610286578063ba6019d414610299578063bb88b769146102ac578063de43156e146102d3578063f2fde38b146102e657600080fd5b806381bf8d3d146101e75780638456cb59146101fd5780638da5cb5b1461020557806390a8ae9b1461022f57806398c61c371461023757600080fd5b806368c4ac26116100f457806368c4ac26146101835780636d69fcaf146101a65780636ff1c9bc146101b9578063715018a6146101cc57806376319190146101d457600080fd5b806302bf321f146101265780633f4ba83a1461014f5780635c975abb146101595780636112fe2e14610170575b600080fd5b610139610134366004611305565b6102f9565b604051610146919061153f565b60405180910390f35b6101576103b7565b005b60005460ff165b6040519015158152602001610146565b61015761017e36600461150d565b6103c9565b610160610191366004611305565b60026020526000908152604090205460ff1681565b6101576101b4366004611305565b6105fe565b6101576101c7366004611305565b610661565b6101576107d8565b6101576101e2366004611305565b6107ea565b6101ef604b81565b604051908152602001610146565b610157610843565b60005461010090046001600160a01b03165b6040516001600160a01b039091168152602001610146565b6101ef605081565b61024a610245366004611329565b610853565b6040805196875260208701959095526001600160a01b0393841694860194909452911660608401526080830152151560a082015260c001610146565b61015761029436600461150d565b6108b6565b6101ef6102a73660046113b8565b610adf565b6102177f000000000000000000000000000000000000000000000000000000000000000081565b6101576102e1366004611452565b610b12565b6101576102f4366004611305565b610c0e565b6001600160a01b0381166000908152600160209081526040808320805482518185028101850190935280835260609492939192909184015b828210156103ac5760008481526020908190206040805160c08101825260068602909201805483526001808201548486015260028201546001600160a01b039081169385019390935260038201549092166060840152600481015460808401526005015460ff16151560a08301529083529092019101610331565b505050509050919050565b6103bf610c87565b6103c7610ce7565b565b6103d1610d39565b3360009081526001602052604090205481106104345760405162461bcd60e51b815260206004820152601c60248201527f5a6574614c656e643a20696e76616c6964206c6f616e20696e6465780000000060448201526064015b60405180910390fd5b336000908152600160205260408120805483908110610455576104556116a1565b60009182526020909120600690910201600581015490915060ff16801561047e57506001810154155b6104ca5760405162461bcd60e51b815260206004820152601960248201527f5a6574614c656e643a206c6f616e206e6f742072657061696400000000000000604482015260640161042b565b805460058201805460ff1916905560008255600282015460405163a9059cbb60e01b8152336004820152602481018390526001600160a01b039091169063a9059cbb90604401602060405180830381600087803b15801561052a57600080fd5b505af115801561053e573d6000803e3d6000fd5b505050506040513d601f19601f820116820180604052508101906105629190611355565b6105ae5760405162461bcd60e51b815260206004820152601b60248201527f5a6574614c656e643a207769746864726177616c206661696c65640000000000604482015260640161042b565b6002820154604080516001600160a01b0390921682526020820183905233917f9b1bfa7fa9ee420a16e124f794c35ac9f90472acc99140eb2f6447c714cad8eb91015b60405180910390a2505050565b610606610c87565b6001600160a01b038116600081815260026020908152604091829020805460ff1916600117905590519182527f784c8f4dbf0ffedd6e72c76501c545a70f8b203b30a26ce542bf92ba87c248a491015b60405180910390a150565b610669610c87565b6040516370a0823160e01b81523060048201526000906001600160a01b038316906370a082319060240160206040518083038186803b1580156106ab57600080fd5b505afa1580156106bf573d6000803e3d6000fd5b505050506040513d601f19601f820116820180604052508101906106e39190611526565b9050816001600160a01b031663a9059cbb61070c6000546001600160a01b036101009091041690565b6040516001600160e01b031960e084901b1681526001600160a01b03909116600482015260248101849052604401602060405180830381600087803b15801561075457600080fd5b505af1158015610768573d6000803e3d6000fd5b505050506040513d601f19601f8201168201806040525081019061078c9190611355565b6107d45760405162461bcd60e51b815260206004820152601960248201527816995d1853195b990e881d1c985b9cd9995c8819985a5b1959603a1b604482015260640161042b565b5050565b6107e0610c87565b6103c76000610d7f565b6107f2610c87565b6001600160a01b038116600081815260026020908152604091829020805460ff1916905590519182527f4c910b69fe65a61f7531b9c5042b2329ca7179c77290aa7e2eb3afa3c8511fd39101610656565b61084b610c87565b6103c7610dd8565b6001602052816000526040600020818154811061086f57600080fd5b60009182526020909120600690910201805460018201546002830154600384015460048501546005909501549396509194506001600160a01b039081169391169160ff1686565b6108be610d39565b33600090815260016020526040902054811061091c5760405162461bcd60e51b815260206004820152601c60248201527f5a6574614c656e643a20696e76616c6964206c6f616e20696e64657800000000604482015260640161042b565b33600090815260016020526040812080548390811061093d5761093d6116a1565b60009182526020909120600690910201600581015490915060ff168015610968575060008160010154115b6109b45760405162461bcd60e51b815260206004820152601860248201527f5a6574614c656e643a206e6f20616374697665206c6f616e0000000000000000604482015260640161042b565b600181015460038201546040516323b872dd60e01b8152336004820152306024820152604481018390526001600160a01b03909116906323b872dd90606401602060405180830381600087803b158015610a0d57600080fd5b505af1158015610a21573d6000803e3d6000fd5b505050506040513d601f19601f82011682018060405250810190610a459190611355565b610a915760405162461bcd60e51b815260206004820152601a60248201527f5a6574614c656e643a2072657061796d656e74206661696c6564000000000000604482015260640161042b565b600060018301556003820154604080516001600160a01b0390921682526020820183905233917f05f2eeda0e08e4b437f487c8d7d29b14537d15e3488170dc3de5dbdf8dac468491016105f1565b8051600090610af057506000919050565b81516020830151610b02906064611637565b610b0c9190611615565b92915050565b610b1a610d39565b336001600160a01b037f00000000000000000000000000000000000000000000000000000000000000001614610b925760405162461bcd60e51b815260206004820152601e60248201527f5a6574614c656e643a206f6e6c792073797374656d20636f6e74726163740000604482015260640161042b565b600080610ba183850185611372565b9092509050600160f81b6001600160f81b031983161415610be4576000610bc888806115c7565b610bd19161166d565b9050610bde818888610e15565b50610c05565b600160f91b6001600160f81b031983161415610c0557610c05818787610f77565b50505050505050565b610c16610c87565b6001600160a01b038116610c7b5760405162461bcd60e51b815260206004820152602660248201527f4f776e61626c653a206e6577206f776e657220697320746865207a65726f206160448201526564647265737360d01b606482015260840161042b565b610c8481610d7f565b50565b6000546001600160a01b036101009091041633146103c75760405162461bcd60e51b815260206004820181905260248201527f4f776e61626c653a2063616c6c6572206973206e6f7420746865206f776e6572604482015260640161042b565b610cef6112a1565b6000805460ff191690557f5db9ee0a495bf2e6ff9c91a7834c1ba4fdd244a5e8aa4e537bd38aeae4b073aa335b6040516001600160a01b03909116815260200160405180910390a1565b60005460ff16156103c75760405162461bcd60e51b815260206004820152601060248201526f14185d5cd8589b194e881c185d5cd95960821b604482015260640161042b565b600080546001600160a01b03838116610100818102610100600160a81b0319851617855560405193049190911692909183917f8be0079c531659141344cd1fd0a4f28419497f9722a3daafe3b4186f6b6457e091a35050565b610de0610d39565b6000805460ff191660011790557f62e78cea01bee320cd4e420270b5ea74000d11b0c9f74754ebdbfc544b05a258610d1c3390565b6001600160a01b03821660009081526002602052604090205460ff16610e7d5760405162461bcd60e51b815260206004820152601d60248201527f5a6574614c656e643a20746f6b656e206e6f7420737570706f72746564000000604482015260640161042b565b6040805160c081018252828152600060208083018281526001600160a01b03878116858701818152606087018681524260808901908152600160a08a018181528e8716808b52828a528c8b2080548085018255908c529a8a90208c516006909c02019a8b559751918a019190915592516002890180546001600160a01b0319908116928816929092179055915160038901805490931695169490941790559151600486015590516005909401805460ff191694151594909417909355845192835290820185905291927f5548c837ab068cf56a2c2479df0882a4922fd203edb7517321831d95078c5f62910160405180910390a250505050565b6001600160a01b03821660009081526002602052604090205460ff16610fdf5760405162461bcd60e51b815260206004820152601d60248201527f5a6574614c656e643a20746f6b656e206e6f7420737570706f72746564000000604482015260640161042b565b6001600160a01b03831660009081526001602052604090205461104e5760405162461bcd60e51b815260206004820152602160248201527f5a6574614c656e643a206e6f20636f6c6c61746572616c206465706f736974656044820152601960fa1b606482015260840161042b565b6001600160a01b038316600090815260016020819052604082208054909161107591611656565b81548110611085576110856116a1565b60009182526020909120600690910201600581015490915060ff1680156110ae57506001810154155b6110fa5760405162461bcd60e51b815260206004820152601c60248201527f5a6574614c656e643a20696e76616c6964206c6f616e20737461746500000000604482015260640161042b565b60006064604b836000015461110f9190611637565b6111199190611615565b90508083111561116b5760405162461bcd60e51b815260206004820152601960248201527f5a6574614c656e643a2065786365656473206d6178204c545600000000000000604482015260640161042b565b60405163a9059cbb60e01b81526001600160a01b0386811660048301526024820185905285169063a9059cbb90604401602060405180830381600087803b1580156111b557600080fd5b505af11580156111c9573d6000803e3d6000fd5b505050506040513d601f19601f820116820180604052508101906111ed9190611355565b6112355760405162461bcd60e51b815260206004820152601960248201527816995d1853195b990e881d1c985b9cd9995c8819985a5b1959603a1b604482015260640161042b565b600182018390556003820180546001600160a01b0319166001600160a01b038681169182179092556040805191825260208201869052918716917f312a5e5e1079f5dda4e95dbbd0b908b291fd5b992ef22073643ab691572c5b52910160405180910390a25050505050565b60005460ff166103c75760405162461bcd60e51b815260206004820152601460248201527314185d5cd8589b194e881b9bdd081c185d5cd95960621b604482015260640161042b565b80356112f5816116b7565b919050565b80356112f5816116cc565b60006020828403121561131757600080fd5b8135611322816116b7565b9392505050565b6000806040838503121561133c57600080fd5b8235611347816116b7565b946020939093013593505050565b60006020828403121561136757600080fd5b8151611322816116cc565b6000806040838503121561138557600080fd5b82356001600160f81b03198116811461139d57600080fd5b915060208301356113ad816116b7565b809150509250929050565b600060c082840312156113ca57600080fd5b60405160c0810181811067ffffffffffffffff821117156113fb57634e487b7160e01b600052604160045260246000fd5b8060405250823581526020830135602082015261141a604084016112ea565b604082015261142b606084016112ea565b60608201526080830135608082015261144660a084016112fa565b60a08201529392505050565b60008060008060006080868803121561146a57600080fd5b853567ffffffffffffffff8082111561148257600080fd5b908701906060828a03121561149657600080fd5b9095506020870135906114a8826116b7565b90945060408701359350606087013590808211156114c557600080fd5b818801915088601f8301126114d957600080fd5b8135818111156114e857600080fd5b8960208285010111156114fa57600080fd5b9699959850939650602001949392505050565b60006020828403121561151f57600080fd5b5035919050565b60006020828403121561153857600080fd5b5051919050565b602080825282518282018190526000919060409081850190868401855b828110156115ba578151805185528681015187860152858101516001600160a01b0390811687870152606080830151909116908601526080808201519086015260a09081015115159085015260c0909301929085019060010161155c565b5091979650505050505050565b6000808335601e198436030181126115de57600080fd5b83018035915067ffffffffffffffff8211156115f957600080fd5b60200191503681900382131561160e57600080fd5b9250929050565b60008261163257634e487b7160e01b600052601260045260246000fd5b500490565b60008160001904831182151516156116515761165161168b565b500290565b6000828210156116685761166861168b565b500390565b80356020831015610b0c57600019602084900360031b1b1692915050565b634e487b7160e01b600052601160045260246000fd5b634e487b7160e01b600052603260045260246000fd5b6001600160a01b0381168114610c8457600080fd5b8015158114610c8457600080fdfea26469706673582212207d728423359adf63e1d2d290c29963ce54f45fcc8c2ad1ae17b3eee31da6dcae64736f6c63430008070033",
  "linkReferences": {},
  "deployedLinkReferences": {}
}