{
  "_format": "hh-sol-artifact-1",
  "contractName": "ZetaLend",
  "sourceName": "contracts/ZetaLend.sol",
  "abi": [
    {
      "inputs": [
        {
          "internalType": "address",
          "name": "systemContractAddress",
          "type": "address"
        }
      ],
      "stateMutability": "nonpayable",
      "type": "constructor"
    },
    {
      "anonymous": false,
      "inputs": [
        {
          "indexed": true,
          "internalType": "address",
          "name": "user",
          "type": "address"
        },
        {
          "indexed": false,
          "internalType": "address",
          "name": "token",
          "type": "address"
        },
        {
          "indexed": false,
          "internalType": "uint256",
          "name": "amount",
          "type": "uint256"
        }
      ],
      "name": "Borrow",
      "type": "event"
    },
    {
      "anonymous": false,
      "inputs": [
        {
          "indexed": true,
          "internalType": "address",
          "name": "user",
          "type": "address"
        },
        {
          "indexed": false,
          "internalType": "address",
          "name": "token",
          "type": "address"
        },
        {
          "indexed": false,
          "internalType": "uint256",
          "name": "amount",
          "type": "uint256"
        }
      ],
      "name": "Deposit",
      "type": "event"
    },
    {
      "anonymous": false,
      "inputs": [
        {
          "indexed": true,
          "internalType": "address",
          "name": "previousOwner",
          "type": "address"
        },
        {
          "indexed": true,
          "internalType": "address",
          "name": "newOwner",
          "type": "address"
        }
      ],
      "name": "OwnershipTransferred",
      "type": "event"
    },
    {
      "anonymous": false,
      "inputs": [
        {
          "indexed": false,
          "internalType": "address",
          "name": "account",
          "type": "address"
        }
      ],
      "name": "Paused",
      "type": "event"
    },
    {
      "anonymous": false,
      "inputs": [
        {
          "indexed": true,
          "internalType": "address",
          "name": "user",
          "type": "address"
        },
        {
          "indexed": false,
          "internalType": "address",
          "name": "token",
          "type": "address"
        },
        {
          "indexed": false,
          "internalType": "uint256",
          "name": "amount",
          "type": "uint256"
        }
      ],
      "name": "Repay",
      "type": "event"
    },
    {
      "anonymous": false,
      "inputs": [
        {
          "indexed": false,
          "internalType": "address",
          "name": "token",
          "type": "address"
        }
      ],
      "name": "TokenAdded",
      "type": "event"
    },
    {
      "anonymous": false,
      "inputs": [
        {
          "indexed": false,
          "internalType": "address",
          "name": "token",
          "type": "address"
        }
      ],
      "name": "TokenRemoved",
      "type": "event"
    },
    {
      "anonymous": false,
      "inputs": [
        {
          "indexed": false,
          "internalType": "address",
          "name": "account",
          "type": "address"
        }
      ],
      "name": "Unpaused",
      "type": "event"
    },
    {
      "anonymous": false,
      "inputs": [
        {
          "indexed": true,
          "internalType": "address",
          "name": "user",
          "type": "address"
        },
        {
          "indexed": false,
          "internalType": "address",
          "name": "token",
          "type": "address"
        },
        {
          "indexed": false,
          "internalType": "uint256",
          "name": "amount",
          "type": "uint256"
        }
      ],
      "name": "Withdraw",
      "type": "event"
    },
    {
      "inputs": [],
      "name": "LIQUIDATION_THRESHOLD",
      "outputs": [
        {
          "internalType": "uint256",
          "name": "",
          "type": "uint256"
        }
      ],
      "stateMutability": "view",
      "type": "function"
    },
    {
      "inputs": [],
      "name": "MAX_LTV",
      "outputs": [
        {
          "internalType": "uint256",
          "name": "",
          "type": "uint256"
        }
      ],
      "stateMutability": "view",
      "type": "function"
    },
    {
      "inputs": [
        {
          "internalType": "address",
          "name": "token",
          "type": "address"
        }
      ],
      "name": "addSupportedToken",
      "outputs": [],
      "stateMutability": "nonpayable",
      "type": "function"
    },
    {
      "inputs": [
        {
          "components": [
            {
              "internalType": "uint256",
              "name": "collateralAmount",
              "type": "uint256"
            },
            {
              "internalType": "uint256",
              "name": "borrowedAmount",
              "type": "uint256"
            },
            {
              "internalType": "address",
              "name": "collateralToken",
              "type": "address"
            },
            {
              "internalType": "address",
              "name": "borrowedToken",
              "type": "address"
            },
            {
              "internalType": "uint256",
              "name": "timestamp",
              "type": "uint256"
            },
            {
              "internalType": "bool",
              "name": "active",
              "type": "bool"
            }
          ],
          "internalType": "struct ZetaLend.Loan",
          "name": "loan",
          "type": "tuple"
        }
      ],
      "name": "calculateLTV",
      "outputs": [
        {
          "internalType": "uint256",
          "name": "",
          "type": "uint256"
        }
      ],
      "stateMutability": "pure",
      "type": "function"
    },
    {
      "inputs": [],
      "name": "deposit",
      "outputs": [],
      "stateMutability": "payable",
      "type": "function"
    },
    {
      "inputs": [
        {
          "internalType": "address",
          "name": "token",
          "type": "address"
        }
      ],
      "name": "emergencyWithdraw",
      "outputs": [],
      "stateMutability": "nonpayable",
      "type": "function"
    },
    {
      "inputs": [],
      "name": "emergencyWithdrawETH",
      "outputs": [],
      "stateMutability": "nonpayable",
      "type": "function"
    },
    {
      "inputs": [
        {
          "internalType": "address",
          "name": "user",
          "type": "address"
        }
      ],
      "name": "getUserLoans",
      "outputs": [
        {
          "components": [
            {
              "internalType": "uint256",
              "name": "collateralAmount",
              "type": "uint256"
            },
            {
              "internalType": "uint256",
              "name": "borrowedAmount",
              "type": "uint256"
            },
            {
              "internalType": "address",
              "name": "collateralToken",
              "type": "address"
            },
            {
              "internalType": "address",
              "name": "borrowedToken",
              "type": "address"
            },
            {
              "internalType": "uint256",
              "name": "timestamp",
              "type": "uint256"
            },
            {
              "internalType": "bool",
              "name": "active",
              "type": "bool"
            }
          ],
          "internalType": "struct ZetaLend.Loan[]",
          "name": "",
          "type": "tuple[]"
        }
      ],
      "stateMutability": "view",
      "type": "function"
    },
    {
      "inputs": [
        {
          "internalType": "address",
          "name": "",
          "type": "address"
        },
        {
          "internalType": "uint256",
          "name": "",
          "type": "uint256"
        }
      ],
      "name": "loans",
      "outputs": [
        {
          "internalType": "uint256",
          "name": "collateralAmount",
          "type": "uint256"
        },
        {
          "internalType": "uint256",
          "name": "borrowedAmount",
          "type": "uint256"
        },
        {
          "internalType": "address",
          "name": "collateralToken",
          "type": "address"
        },
        {
          "internalType": "address",
          "name": "borrowedToken",
          "type": "address"
        },
        {
          "internalType": "uint256",
          "name": "timestamp",
          "type": "uint256"
        },
        {
          "internalType": "bool",
          "name": "active",
          "type": "bool"
        }
      ],
      "stateMutability": "view",
      "type": "function"
    },
    {
      "inputs": [
        {
          "components": [
            {
              "internalType": "bytes",
              "name": "origin",
              "type": "bytes"
            },
            {
              "internalType": "address",
              "name": "sender",
              "type": "address"
            },
            {
              "internalType": "uint256",
              "name": "chainID",
              "type": "uint256"
            }
          ],
          "internalType": "struct zContext",
          "name": "context",
          "type": "tuple"
        },
        {
          "internalType": "address",
          "name": "zrc20",
          "type": "address"
        },
        {
          "internalType": "uint256",
          "name": "amount",
          "type": "uint256"
        },
        {
          "internalType": "bytes",
          "name": "message",
          "type": "bytes"
        }
      ],
      "name": "onCrossChainCall",
      "outputs": [],
      "stateMutability": "nonpayable",
      "type": "function"
    },
    {
      "inputs": [],
      "name": "owner",
      "outputs": [
        {
          "internalType": "address",
          "name": "",
          "type": "address"
        }
      ],
      "stateMutability": "view",
      "type": "function"
    },
    {
      "inputs": [],
      "name": "pause",
      "outputs": [],
      "stateMutability": "nonpayable",
      "type": "function"
    },
    {
      "inputs": [],
      "name": "paused",
      "outputs": [
        {
          "internalType": "bool",
          "name": "",
          "type": "bool"
        }
      ],
      "stateMutability": "view",
      "type": "function"
    },
    {
      "inputs": [
        {
          "internalType": "address",
          "name": "token",
          "type": "address"
        }
      ],
      "name": "removeSupportedToken",
      "outputs": [],
      "stateMutability": "nonpayable",
      "type": "function"
    },
    {
      "inputs": [],
      "name": "renounceOwnership",
      "outputs": [],
      "stateMutability": "nonpayable",
      "type": "function"
    },
    {
      "inputs": [
        {
          "internalType": "uint256",
          "name": "loanIndex",
          "type": "uint256"
        }
      ],
      "name": "repayLoan",
      "outputs": [],
      "stateMutability": "nonpayable",
      "type": "function"
    },
    {
      "inputs": [
        {
          "internalType": "address",
          "name": "",
          "type": "address"
        }
      ],
      "name": "supportedTokens",
      "outputs": [
        {
          "internalType": "bool",
          "name": "",
          "type": "bool"
        }
      ],
      "stateMutability": "view",
      "type": "function"
    },
    {
      "inputs": [],
      "name": "systemContract",
      "outputs": [
        {
          "internalType": "contract SystemContract",
          "name": "",
          "type": "address"
        }
      ],
      "stateMutability": "view",
      "type": "function"
    },
    {
      "inputs": [
        {
          "internalType": "address",
          "name": "newOwner",
          "type": "address"
        }
      ],
      "name": "transferOwnership",
      "outputs": [],
      "stateMutability": "nonpayable",
      "type": "function"
    },
    {
      "inputs": [],
      "name": "unpause",
      "outputs": [],
      "stateMutability": "nonpayable",
      "type": "function"
    },
    {
      "inputs": [
        {
          "internalType": "uint256",
          "name": "loanIndex",
          "type": "uint256"
        }
      ],
      "name": "withdrawCollateral",
      "outputs": [],
      "stateMutability": "nonpayable",
      "type": "function"
    },
    {
      "stateMutability": "payable",
      "type": "receive"
    }
  ],
  "bytecode": "0x60a060405234801561001057600080fd5b5060405162001c4a38038062001c4a833981016040819052610031916100e9565b6000805460ff1916905561004433610090565b60601b6001600160601b0319166080526000805260026020527fac33ff75c19e70fe83507db0d683fd3465c996598dc972688b7ace676c89077b8054600160ff19909116179055610119565b600080546001600160a01b03838116610100818102610100600160a81b0319851617855560405193049190911692909183917f8be0079c531659141344cd1fd0a4f28419497f9722a3daafe3b4186f6b6457e091a35050565b6000602082840312156100fb57600080fd5b81516001600160a01b038116811461011257600080fd5b9392505050565b60805160601c611b0b6200013f600039600081816103b70152610f200152611b0b6000f3fe60806040526004361061012e5760003560e01c806384536017116100ab578063ab7b1c891161006f578063ab7b1c8914610365578063ba6019d414610385578063bb88b769146103a5578063d0e30db0146103d9578063de43156e146103e1578063f2fde38b1461040157600080fd5b806384536017146102935780638456cb59146102a85780638da5cb5b146102bd57806390a8ae9b146102f457806398c61c371461030957600080fd5b80636d69fcaf116100f25780636d69fcaf146101fb5780636ff1c9bc1461021b578063715018a61461023b578063763191901461025057806381bf8d3d1461027057600080fd5b806302bf321f1461013a5780633f4ba83a146101705780635c975abb146101875780636112fe2e146101ab57806368c4ac26146101cb57600080fd5b3661013557005b600080fd5b34801561014657600080fd5b5061015a610155366004611700565b610421565b604051610167919061193a565b60405180910390f35b34801561017c57600080fd5b506101856104df565b005b34801561019357600080fd5b5060005460ff165b6040519015158152602001610167565b3480156101b757600080fd5b506101856101c6366004611908565b6104f1565b3480156101d757600080fd5b5061019b6101e6366004611700565b60026020526000908152604090205460ff1681565b34801561020757600080fd5b50610185610216366004611700565b6107d6565b34801561022757600080fd5b50610185610236366004611700565b610839565b34801561024757600080fd5b506101856109b0565b34801561025c57600080fd5b5061018561026b366004611700565b6109c2565b34801561027c57600080fd5b50610285604b81565b604051908152602001610167565b34801561029f57600080fd5b50610185610a1b565b3480156102b457600080fd5b50610185610ade565b3480156102c957600080fd5b5060005461010090046001600160a01b03165b6040516001600160a01b039091168152602001610167565b34801561030057600080fd5b50610285605081565b34801561031557600080fd5b50610329610324366004611724565b610aee565b6040805196875260208701959095526001600160a01b0393841694860194909452911660608401526080830152151560a082015260c001610167565b34801561037157600080fd5b50610185610380366004611908565b610b51565b34801561039157600080fd5b506102856103a03660046117b3565b610d7a565b3480156103b157600080fd5b506102dc7f000000000000000000000000000000000000000000000000000000000000000081565b610185610dad565b3480156103ed57600080fd5b506101856103fc36600461184d565b610f0d565b34801561040d57600080fd5b5061018561041c366004611700565b611009565b6001600160a01b0381166000908152600160209081526040808320805482518185028101850190935280835260609492939192909184015b828210156104d45760008481526020908190206040805160c08101825260068602909201805483526001808201548486015260028201546001600160a01b039081169385019390935260038201549092166060840152600481015460808401526005015460ff16151560a08301529083529092019101610459565b505050509050919050565b6104e7611082565b6104ef6110e2565b565b6104f9611134565b33600090815260016020526040902054811061055c5760405162461bcd60e51b815260206004820152601c60248201527f5a6574614c656e643a20696e76616c6964206c6f616e20696e6465780000000060448201526064015b60405180910390fd5b33600090815260016020526040812080548390811061057d5761057d611a9c565b60009182526020909120600690910201600581015490915060ff1680156105a657506001810154155b6105f25760405162461bcd60e51b815260206004820152601960248201527f5a6574614c656e643a206c6f616e206e6f7420726570616964000000000000006044820152606401610553565b805460058201805460ff191690556000825560028201546001600160a01b03166106b457604051600090339083908381818185875af1925050503d8060008114610658576040519150601f19603f3d011682016040523d82523d6000602084013e61065d565b606091505b50509050806106ae5760405162461bcd60e51b815260206004820152601f60248201527f5a6574614c656e643a20455448207769746864726177616c206661696c6564006044820152606401610553565b50610786565b600282015460405163a9059cbb60e01b8152336004820152602481018390526001600160a01b039091169063a9059cbb90604401602060405180830381600087803b15801561070257600080fd5b505af1158015610716573d6000803e3d6000fd5b505050506040513d601f19601f8201168201806040525081019061073a9190611750565b6107865760405162461bcd60e51b815260206004820152601b60248201527f5a6574614c656e643a207769746864726177616c206661696c656400000000006044820152606401610553565b6002820154604080516001600160a01b0390921682526020820183905233917f9b1bfa7fa9ee420a16e124f794c35ac9f90472acc99140eb2f6447c714cad8eb91015b60405180910390a2505050565b6107de611082565b6001600160a01b038116600081815260026020908152604091829020805460ff1916600117905590519182527f784c8f4dbf0ffedd6e72c76501c545a70f8b203b30a26ce542bf92ba87c248a491015b60405180910390a150565b610841611082565b6040516370a0823160e01b81523060048201526000906001600160a01b038316906370a082319060240160206040518083038186803b15801561088357600080fd5b505afa158015610897573d6000803e3d6000fd5b505050506040513d601f19601f820116820180604052508101906108bb9190611921565b9050816001600160a01b031663a9059cbb6108e46000546001600160a01b036101009091041690565b6040516001600160e01b031960e084901b1681526001600160a01b03909116600482015260248101849052604401602060405180830381600087803b15801561092c57600080fd5b505af1158015610940573d6000803e3d6000fd5b505050506040513d601f19601f820116820180604052508101906109649190611750565b6109ac5760405162461bcd60e51b815260206004820152601960248201527816995d1853195b990e881d1c985b9cd9995c8819985a5b1959603a1b6044820152606401610553565b5050565b6109b8611082565b6104ef600061117a565b6109ca611082565b6001600160a01b038116600081815260026020908152604091829020805460ff1916905590519182527f4c910b69fe65a61f7531b9c5042b2329ca7179c77290aa7e2eb3afa3c8511fd3910161082e565b610a23611082565b476000610a3e6000546001600160a01b036101009091041690565b6001600160a01b03168260405160006040518083038185875af1925050503d8060008114610a88576040519150601f19603f3d011682016040523d82523d6000602084013e610a8d565b606091505b50509050806109ac5760405162461bcd60e51b815260206004820152601f60248201527f5a6574614c656e643a20455448207769746864726177616c206661696c6564006044820152606401610553565b610ae6611082565b6104ef6111d3565b60016020528160005260406000208181548110610b0a57600080fd5b60009182526020909120600690910201805460018201546002830154600384015460048501546005909501549396509194506001600160a01b039081169391169160ff1686565b610b59611134565b336000908152600160205260409020548110610bb75760405162461bcd60e51b815260206004820152601c60248201527f5a6574614c656e643a20696e76616c6964206c6f616e20696e646578000000006044820152606401610553565b336000908152600160205260408120805483908110610bd857610bd8611a9c565b60009182526020909120600690910201600581015490915060ff168015610c03575060008160010154115b610c4f5760405162461bcd60e51b815260206004820152601860248201527f5a6574614c656e643a206e6f20616374697665206c6f616e00000000000000006044820152606401610553565b600181015460038201546040516323b872dd60e01b8152336004820152306024820152604481018390526001600160a01b03909116906323b872dd90606401602060405180830381600087803b158015610ca857600080fd5b505af1158015610cbc573d6000803e3d6000fd5b505050506040513d601f19601f82011682018060405250810190610ce09190611750565b610d2c5760405162461bcd60e51b815260206004820152601a60248201527f5a6574614c656e643a2072657061796d656e74206661696c65640000000000006044820152606401610553565b600060018301556003820154604080516001600160a01b0390921682526020820183905233917f05f2eeda0e08e4b437f487c8d7d29b14537d15e3488170dc3de5dbdf8dac468491016107c9565b8051600090610d8b57506000919050565b81516020830151610d9d906064611a32565b610da79190611a10565b92915050565b610db5611134565b60003411610e1d5760405162461bcd60e51b815260206004820152602f60248201527f5a6574614c656e643a206465706f73697420616d6f756e74206d75737420626560448201526e02067726561746572207468616e203608c1b6064820152608401610553565b6040805160c0810182523480825260006020808401828152848601838152606086018481524260808801908152600160a08901818152338089528288528b892080548085018255908a52888a208c5160069092020190815596519287019290925593516002860180546001600160a01b03199081166001600160a01b0393841617909155935160038701805490951691161790925551600484015590516005909201805460ff191692151592909217909155855192835290820192909252919290917f5548c837ab068cf56a2c2479df0882a4922fd203edb7517321831d95078c5f62910160405180910390a250565b610f15611134565b336001600160a01b037f00000000000000000000000000000000000000000000000000000000000000001614610f8d5760405162461bcd60e51b815260206004820152601e60248201527f5a6574614c656e643a206f6e6c792073797374656d20636f6e747261637400006044820152606401610553565b600080610f9c8385018561176d565b9092509050600160f81b6001600160f81b031983161415610fdf576000610fc388806119c2565b610fcc91611a68565b9050610fd9818888611210565b50611000565b600160f91b6001600160f81b03198316141561100057611000818787611372565b50505050505050565b611011611082565b6001600160a01b0381166110765760405162461bcd60e51b815260206004820152602660248201527f4f776e61626c653a206e6577206f776e657220697320746865207a65726f206160448201526564647265737360d01b6064820152608401610553565b61107f8161117a565b50565b6000546001600160a01b036101009091041633146104ef5760405162461bcd60e51b815260206004820181905260248201527f4f776e61626c653a2063616c6c6572206973206e6f7420746865206f776e65726044820152606401610553565b6110ea61169c565b6000805460ff191690557f5db9ee0a495bf2e6ff9c91a7834c1ba4fdd244a5e8aa4e537bd38aeae4b073aa335b6040516001600160a01b03909116815260200160405180910390a1565b60005460ff16156104ef5760405162461bcd60e51b815260206004820152601060248201526f14185d5cd8589b194e881c185d5cd95960821b6044820152606401610553565b600080546001600160a01b03838116610100818102610100600160a81b0319851617855560405193049190911692909183917f8be0079c531659141344cd1fd0a4f28419497f9722a3daafe3b4186f6b6457e091a35050565b6111db611134565b6000805460ff191660011790557f62e78cea01bee320cd4e420270b5ea74000d11b0c9f74754ebdbfc544b05a2586111173390565b6001600160a01b03821660009081526002602052604090205460ff166112785760405162461bcd60e51b815260206004820152601d60248201527f5a6574614c656e643a20746f6b656e206e6f7420737570706f727465640000006044820152606401610553565b6040805160c081018252828152600060208083018281526001600160a01b03878116858701818152606087018681524260808901908152600160a08a018181528e8716808b52828a528c8b2080548085018255908c529a8a90208c516006909c02019a8b559751918a019190915592516002890180546001600160a01b0319908116928816929092179055915160038901805490931695169490941790559151600486015590516005909401805460ff191694151594909417909355845192835290820185905291927f5548c837ab068cf56a2c2479df0882a4922fd203edb7517321831d95078c5f62910160405180910390a250505050565b6001600160a01b03821660009081526002602052604090205460ff166113da5760405162461bcd60e51b815260206004820152601d60248201527f5a6574614c656e643a20746f6b656e206e6f7420737570706f727465640000006044820152606401610553565b6001600160a01b0383166000908152600160205260409020546114495760405162461bcd60e51b815260206004820152602160248201527f5a6574614c656e643a206e6f20636f6c6c61746572616c206465706f736974656044820152601960fa1b6064820152608401610553565b6001600160a01b038316600090815260016020819052604082208054909161147091611a51565b8154811061148057611480611a9c565b60009182526020909120600690910201600581015490915060ff1680156114a957506001810154155b6114f55760405162461bcd60e51b815260206004820152601c60248201527f5a6574614c656e643a20696e76616c6964206c6f616e207374617465000000006044820152606401610553565b60006064604b836000015461150a9190611a32565b6115149190611a10565b9050808311156115665760405162461bcd60e51b815260206004820152601960248201527f5a6574614c656e643a2065786365656473206d6178204c5456000000000000006044820152606401610553565b60405163a9059cbb60e01b81526001600160a01b0386811660048301526024820185905285169063a9059cbb90604401602060405180830381600087803b1580156115b057600080fd5b505af11580156115c4573d6000803e3d6000fd5b505050506040513d601f19601f820116820180604052508101906115e89190611750565b6116305760405162461bcd60e51b815260206004820152601960248201527816995d1853195b990e881d1c985b9cd9995c8819985a5b1959603a1b6044820152606401610553565b600182018390556003820180546001600160a01b0319166001600160a01b038681169182179092556040805191825260208201869052918716917f312a5e5e1079f5dda4e95dbbd0b908b291fd5b992ef22073643ab691572c5b52910160405180910390a25050505050565b60005460ff166104ef5760405162461bcd60e51b815260206004820152601460248201527314185d5cd8589b194e881b9bdd081c185d5cd95960621b6044820152606401610553565b80356116f081611ab2565b919050565b80356116f081611ac7565b60006020828403121561171257600080fd5b813561171d81611ab2565b9392505050565b6000806040838503121561173757600080fd5b823561174281611ab2565b946020939093013593505050565b60006020828403121561176257600080fd5b815161171d81611ac7565b6000806040838503121561178057600080fd5b82356001600160f81b03198116811461179857600080fd5b915060208301356117a881611ab2565b809150509250929050565b600060c082840312156117c557600080fd5b60405160c0810181811067ffffffffffffffff821117156117f657634e487b7160e01b600052604160045260246000fd5b80604052508235815260208301356020820152611815604084016116e5565b6040820152611826606084016116e5565b60608201526080830135608082015261184160a084016116f5565b60a08201529392505050565b60008060008060006080868803121561186557600080fd5b853567ffffffffffffffff8082111561187d57600080fd5b908701906060828a03121561189157600080fd5b9095506020870135906118a382611ab2565b90945060408701359350606087013590808211156118c057600080fd5b818801915088601f8301126118d457600080fd5b8135818111156118e357600080fd5b8960208285010111156118f557600080fd5b9699959850939650602001949392505050565b60006020828403121561191a57600080fd5b5035919050565b60006020828403121561193357600080fd5b5051919050565b602080825282518282018190526000919060409081850190868401855b828110156119b5578151805185528681015187860152858101516001600160a01b0390811687870152606080830151909116908601526080808201519086015260a09081015115159085015260c09093019290850190600101611957565b5091979650505050505050565b6000808335601e198436030181126119d957600080fd5b83018035915067ffffffffffffffff8211156119f457600080fd5b602001915036819003821315611a0957600080fd5b9250929050565b600082611a2d57634e487b7160e01b600052601260045260246000fd5b500490565b6000816000190483118215151615611a4c57611a4c611a86565b500290565b600082821015611a6357611a63611a86565b500390565b80356020831015610da757600019602084900360031b1b1692915050565b634e487b7160e01b600052601160045260246000fd5b634e487b7160e01b600052603260045260246000fd5b6001600160a01b038116811461107f57600080fd5b801515811461107f57600080fdfea26469706673582212205331b53f06c6868d789cc601cf1231c1a2933635a42a7d468a0d29fbfc0b97a464736f6c63430008070033",
  "linkReferences": {},
  "deployedLinkReferences": {}
}